:400000000080002011000000310400003104000008B5044B1A6803F53F5302331A6000F027FA00BFFA46004010B5054C237833B9044B13B10448AFF300800123237010BDEC
:400040004881FF1F0000000070140000084B10B51BB108490848AFF300800848036803B910BD074B002BFBD0BDE81040184700BF000000004C81FF1F70140000C880FF1FFA
:400080000000000010B562B600F07CFA00F060FC0A2000F035FD104800F08EFA002300E001333F2BFCDD0D4800F086FA47F2305000F01CF80A4C034647F230520949204687
:4000C00000F0B2FD204600F077FA0A2000F018FD054800F071FAFEE774140000841400007081FF1F98140000AC14000000B583B003218DF80410030A8DF805308DF806004C
:4001000002AA002302F8053D012301A800F006F89DF8030003B05DF804FB00BF2DE9F04383B006460C4617469846002000F0BEFC64B2002511E02146082CA8BF0821C9B2AA
:4001400006EBC50000F08EFB00F07EFA10F0010FFAD0083C64B201356DB2002CEBDC00F091FB00F035FB0026009601964FFA88F820E0C146B8F1080FA8BF4FF008095FFADD
:4001800089F1684600F06EFB00F05EFA10F0010FFAD0002406E004EBC60500F0E7FA78550134E4B24C45F6DBA8F108084FFA88F8013676B2B8F1000FDBDC012000F076FC4A
:4001C00000F060FB00F004FB00F022FB03B0BDE8F08300BFFEE700BFF0B40022174611E050F82760F3B226F0FF0608E001EB420511F812406D78A5550132013BDBB2002B6B
:40020000F4D10137192FEBD9F0BC7047064B1B78DBB203F00701054A11701B09013213704422034B1A707047CF0100496E5800407658004008B50A46002100F0ECFC08BD4F
:4002400038B50B22264B1A801823264A1370332102321180023213700222234B1A7008224FF040231A70032103F5007319701F4B1B78DBB21E490B701E4B1A8041F25122BC
:40028000023B1A80002419250CE01B4B1B7803F0010343EA440404F003044FF4F07000F073FC013D0DB1032CEFD115B90320FFF791FF124B4FF480721A8007221A70002254
:4002C0000F490A704820023108701A700222033B1A700C4A137843F00303137038BD00BF80400040824000400043004008010049A146004022420040254200400440004085
:4003000006400040A243004008B500F079FC08BD38B572B6354A137843F00403137000240CE0334D630019194A0011462A44084691882858FFF77EFF0134E4B2072CF0D9FA
:4003400000240BE02A48A20011194B0003441A8F596B186BFFF7D8FF0134E4B2012CF1D924494FF09040FFF737FF234A137843F0020313701032137843F0020313701F4CD1
:40038000237843F040032370A2F58632513A137843F010031370082219491A48FFF7B4FF0A2219491948FFF7AFFF082218491948FFF7AAFF0A2218491848FFF7A5FF184ACD
:4003C000137843F008031370164D61232B70FFF737FF81232B700122134B1A70FFF716FF0E2221461148FFF78FFF38BDE8460040D41400006800004803500140A043004088
:40040000880500480251004090050048C05100409C05004812510040A405004820510040224300400048004004000840B043004008B500F0B9FB03680C2B00D1FEE7FEE7AE
:4004400008B5094B1A681044084BC31A802B02DC054B186005E000F0A7FB0C2303604FF0FF32104608BD00BFCC80FF1FF881FF1F08B5104E104D16E029686B68AC680022B8
:4004800004E051F8040B43F8040B0432A242F8D1E868002203E0002143F8041B04328242F9D11035013E002EE6D100F083FBFFF7E9FDFEE7010000007415000008B5104A06
:4004C000104B1A60104A136843F40073136000230AE0032B03D80D4A52F8231000E00C490C4A42F8231001332F2BF2D90A4B1A780A4B1A70074A0A4B1A60FFF709FF08BD51
:400500000004FA050CED00E014ED00E000000000310400000080FF1FBC760040C080FF1F08ED00E07222084B1A702022013B1A700622A3F5AF731A70472210331A70002249
:4005400003F5A8731A7070478A65004010B500F023FB04460A4A137843F020031370013A137843F0100313700232137843F01003137000F0A7FA204600F012FB10BD00BF8C
:400580009A65004008B5054B1B7823B9FFF7CAFF0122024B1A70FFF7D9FF08BD6481FF1F034B1B7813F0040FFAD1024B187070476B6500404865004038B5074B1B782BB930
:4005C00038BDFFF7EDFF0134A4B201E005460024285D0028F5D138BD6481FF1F0222014B1A60704700E100E00122014B1A60704700E100E008B500F0CFFA0C4A137843F091
:4006000020031370013A137843F010031370023A137843F01003137000F0C2FA00F060FAFFF7DCFFFFF7E0FF08BD00BF9B6400400222014B1A60704780E100E00122014B45
:400640001A60704780E100E010B5FFF7F1FF064B1C78064A137803F009031C4300231370FFF7BCFF204610BD6A640040E081FF1F10B5FFF7E3FF064B1B78064A147804F0D7
:4006800040041C4300231370FFF7AEFF204610BD68640040F181FF1F10B504462B4B1A7802F0FF0312B1013BDBB200E00723284A1278D2B29342F1D0FFF7BAFF254B197818
:4006C000254A137803F009030B4313701F4B1A78D2B21F4B1B78DBB29A4207D11E4B1B7813F0040F02D01D4B1C702CE0184A13780133DBB213701378DBB2072B02D9002216
:40070000134B1A70124B1A78D2B2104B1B78DBB29A420ED10D4A13780133DBB213701378DBB2072B02D90022084B1A7001220C4B1A70074B1B78DBB20A4AD4540A4A13780D
:4007400043F004031370FFF749FF10BDED81FF1FEF81FF1F6A640040E081FF1F48640040EC81FF1FD881FF1F8A64004010B5FFF765FF134B1A78D2B2124B1B78DBB29A4202
:4007800014D0114B1B7813F0FF0F0CD10C4A13780133DBB213701378DBB2072B06D90022074B1A7002E00022074B1A70044B1B78DBB2064AD45CE4B2FFF716FF204610BD89
:4007C000F081FF1FEE81FF1FD481FF1FE481FF1F08B501E0094B1B78094B1B7813F0200FF8D1FFF72BFF0023064A1370064A1370064A1370FFF7F8FE08BD00BF5864004058
:4008000068640040D481FF1FF081FF1FEE81FF1F08B500F0C1F90E4B1A7842F001021A701A7802F0FE021A7000F0BAF9FFF700FF0023084A1370084A1370084A1370084A72
:40084000137803F0FB031370FFF7C8FE08BD00BF98640040EC81FF1FED81FF1FEF81FF1F8A64004070B506460C46002506E0705DFFF712FF0135EDB2013CE4B2002CF6D1ED
:4008800070BD00BF08B501E00A4B1B780A4B1B7813F0200FF8D100F07FF9084B1A7842F001021A701A7802F0FE021A7000F078F908BD00BF586400406864004098640040A0
:4008C00010B50F22174B1A70174C022323600721012000F03FF91549012000F027F9012323600721002000F035F91149002000F01DF9FFF7C7FF00240E4B1C700E4B1C70D4
:400900000E4B1C700E4B1C700E4B1C700E4B1C70FFF79AFEFFF7ACFE0C4B1C702022023B1A7010BD8B64004080E100E06D0900000D0A0000D481FF1FF081FF1FEE81FF1FB0
:40094000EC81FF1FED81FF1FEF81FF1F8A64004008B5054B1B7823B9FFF7B2FF0122024B1A70FFF747FE08BD6681FF1F28E01F4B19781F4A137803F009030B431370137830
:4009800013F0040F24D01B4B1B7813F0FF0F0CD1194A13780133DBB213701378DBB2072B06D90022144B1A7002E00022114B1A70114B1B78DBB2114AD35CDBB2104A137086
:4009C0000D4B1A78D2B20F4B1B78DBB29A42CED1094B1A78D2B20B4B1B78DBB29A4204D1094A137803F0FB03137070476A640040E081FF1FEC81FF1FED81FF1FD881FF1FDF
:400A000048640040EF81FF1F8A640040204B1A7820490B7803F0400313430B7032E01E4B1A78D2B21D490B780133DBB20B700B78DBB2072B02D90021184B1970174B19784B
:400A4000C9B2174B1B78DBB299420ED114490B780133DBB20B700B78DBB2072B02D900210F4B197001210F4B19700C4B1B78DBB20D49CA54064B1A7806490B7803F04003A7
:400A800013430B70034B1B7813F0200FC7D1704768640040F181FF1F58640040EE81FF1FF081FF1FD481FF1FE481FF1F044A137803F0EF03000100F0100018431070704708
:400AC00020510040054A137843F0020313701032137843F002031370704700BFA2430040054A137843F0010313701032137843F001031370704700BFA243004001BE704761
:400B000010B5044605E0084B186800F03DF8A4F50044B4F5004FF6D8034B586800FB04F000F032F810BD00BFD080FF1F70B504460E46074B1D681F2802D90020FFF7DEFF66
:400B400004F01F04103455F8240045F8246070BD08ED00E038B504460D46072902D90020FFF7CCFF1F2C02D90020FFF7C7FF04F01F0000F1604000F564406D01EDB20570AF
:400B800038BD00BF000000000230800803D000BF01380046FCD17047EFF3108072B6704780F31088704700BF014B1868704700BF4081FF1F0E4B70B51E460E4C0025E41AE0
:400BC000A410A54204D056F8253098470135F8E700F0BEFC084B094C1E46E41AA4100025A54204D056F8253098470135F8E770BD5C1500005C1500005C1500006415000017
:400C000010B5431E0A44914204D011F8014B03F8014FF8E710BD03460244934202D003F8011BFAE7704700000EB400B54FF402719CB0ADF814106FF00041049107914FF614
:400C4000FF711DAB02900690084853F8042BADF81610006802A9019300F064F8029B00221A701CB05DF804EB03B070474081FF1F2DE9F0478E6882469E420C4691469846F8
:400C80003ED88A8912F4906F3AD02568096902236F1A656905EB450595FBF3F57B1C43449D4238BF1D4653050FD5294600F040FB064698B13A462169FFF7A2FFA38923F429
:400CC000906343F08003A38113E02A4600F08EFB064670B92169504600F0DEFA0C23CAF80030A3894FF0FF3043F04003A381BDE8F08726613E44266046466561ED1BA5608F
:400D0000464528BF464649463246206800F0A8FAA36800209B1BA36023681E442660BDE8F08700002DE9F04F9DB003938B8980461C060D4616460DD50B695BB9402100F083
:400D4000F7FA2860286118B90C23C8F80030CDE040236B610023099320238DF82930DFF89CB130238DF82A3037463C4614F8013B1BB9B7EB060910D003E0252BF9D027465A
:400D8000F3E74B46324629464046FFF771FF013000F0A780099B4B4409933B78002B00F0A08000234FF0FF3204930793059206938DF853301A930126052221784E4800F0DA
:400DC00041FA671C049B38B14B4A3C46801A06FA00F018430490EFE7D90644BF20228DF853201A0744BF2B228DF8532022782A2A03D0079A00210A200BE0039A111D1268E5
:400E00000391002A10DA524243F00200079204900BE027463B780134303B092B03D800FB02320121F5E701B107923B782E2B1ED17B782A2B0AD1039B02371A1D1B6803929E
:400E4000002BB8BF4FF0FF33059310E0002319460593781C0A2407463A780130303A092A03D804FB01210123F5E703B1059103223978224800F0E6F940B14023CBEB0000CF
:400E800003FA00F0049B013718430490397806221B487E1C8DF8281000F0D4F988B1194B33B9039B073323F007030833039314E003AB00932A46144B04A94046AFF3008087
:400EC00007E003AB00932A460F4B04A9404600F093F8B0F1FF3F824603D0099B5344099342E7AB895B0601D4099801E04FF0FF301DB0BDE8F08F00BF1A150000201500006A
:400F00002415000000000000710C00002DE9F04791461F460A698B6806469342B8BF1346C9F8003091F843200C46DDF8208012B10133C9F800302368990642BFD9F8003063
:400F40000233C9F80030256815F0060510D104F1190A07E00123524639463046C04701301AD00135E368D9F800209B1A9D42F1DB94F843302268003318BF012392060FD5F6
:400F8000E118302081F843005A1C94F845102244023382F8431003E04FF0FF30BDE8F08704F1430239463046C0470130F4D02268D9F80050E36802F00602042A08BF5D1B78
:400FC0002269A3680CBF25EAE57500259342C4BF9B1AED184FF000091A344D4509D00123224639463046C0470130D5D009F10109F3E70020BDE8F0872DE9F04317460A7E49
:4010000085B06E2A984606460C460C9B01F1430E00F0AE8011D8632A22D009D8002A00F0BB80582A40F0CA8081F84520834955E0642A1ED0692A1CD0C0E0732A00F0B0808E
:4010400009D86F2A2ED0702A40F0B8800A6842F020020A603EE0752A24D0782A3AD0ADE01A6801F14205111D1960136884F84230A8E021681A6811F0800F02D0111D196075
:4010800008E011F0400F02F10401196002D0B2F9003000E01368002B3CDA2D225B4284F8432037E021681A6811F0800F02D0111D196007E011F0400F02F10401196001D0CF
:4010C000138800E01368227E5C496F2A14BF0A2208221BE078225A4984F845202268186812F0800F00F104051D6003D1550601D5038800E00368D00744BF42F0200222603D
:401100001BB9226822F0200222601022002084F8430001E049490A226568002DA56008DB206820F0040020602BB9002D7DD175460CE0002B79D07546B3FBF2F002FB1033E8
:40114000CB5C05F8013D03460028F5D1082A0BD12368DA0708D5236962689A42DEBF302305F8013C05F1FF35C5EB0E0323612EE008681A6810F0800F496903D0101D1860FB
:40118000136808E010F0400F02F104001860136801D0198000E0196000232361754616E01A68111D1960156800216268284600F049F808B1401B6060636804E004F1420589
:4011C00084F8422001232361002384F84330CDF800803B4603AA21463046FFF797FE013002D14FF0FF3026E023692A4639463046C0470130F5D023689B0710D5002504F1EA
:40120000190907E001234A4639463046C0470130E7D00135E368039A9B1A9D42F2DBE068039B9842B8BF184605E00B7804F1420584F842308AE705B0BDE8F0832B150000E9
:401240003C15000010B5C9B202449042034605D01C7801308C42F8D1184610BD002010BD884210B501EB020301D8421E0BE09842FBD28118D21AD34204D013F8014D01F828
:40128000014DF8E710BD994204D011F8014B02F8014FF8E710BD000038B50546002944D051F8043C0C1F002BB8BFE41800F0D4F81E4A1368114613B96360146030E0A34285
:4012C0000DD92268A018834201BF18685B681218226063600C6023E0A24203D813465A68002AF9D118681918A1420BD12168014458188242196013D1106852680144196093
:401300005A600DE002D90C232B6009E021686018824201BF106852680918216062605C602846BDE8384000F098B838BD6C81FF1F70B5CD1C25F0030508350C2D38BF0C251D
:40134000002D064601DBA94202D90C23336046E000F082F8234B1C681A462146A1B10B685B1B0ED40B2B03D90B60CC18CD501EE08C420BBF63684B681360636018BF0C4639
:4013800015E00C464968E9E7174C23681BB9304600F052F820602946304600F04DF8431C18D0C41C24F00304A0420DD12560304600F053F804F10B00231D20F00700C31AED
:4013C0000ED05A42E25070BD211A304600F034F80130EBD10C233360304600F03EF8002070BD00BF6C81FF1F6881FF1FF8B5074615460E4621B91146BDE8F840FFF798BFDA
:401400001AB9FFF749FF2846F8BD00F027F885420ED929463846FFF78BFF044650B131462A46FFF7EDFB31463846FFF735FF01E03046F8BD2046F8BD38B5064C002305464B
:4014400008462360FEF7FCFF431C02D1236803B12B6038BDF481FF1F7047704751F8040C0028BEBF091851F8043CC0180438704700000000554152542073746172746564F3
:401480000D0A0000454550524F4D2052455345545445440D0A00000043656C6C612030782578203D2025640D0A0000002A2A2A2A2A2A2A2A2A2A2A2A2A2A2A2A2A2A2A2A0B
:4014C0002A2A2A2A2A2A2A2A2A2A2A2A2A2A2A2A2A0D0A00305100404000F0510040100000000140000880080140800700140140000800400140000A004C01400002005019
:401500000140200060520040000500480600000801400805004880004300232D302B2000686C4C00656667454647003031323334353637383941424344454600303132334D
:4015400034353637383961626364656600000000F8B500BFF8BC08BC9E4670474D000000BD040000F8B500BFF8BC08BC9E4670472900000088150000C880FF1F8000000017
:40158000B00000000000000000000000F881FF1F0000E02EC05D00001800000000366E010000000000000000000000000000000000000000000000000000000000000000FC
:4015C00018150000000000000000000000000000000000000000000000000000000000000000000000000000000000000000000000000000000000000000000000000000BE
:40160000E080FF1F0000000000000000000000000000000000000000000000000000000000000000000000000000000000000000000000000000000000000000000000002C
:40164000000000000000000000000000000000000000000000000000000000000000000000000000000000000000000000000000000000000000000000000000000000006A
:40168000000000000000000000000000000000000000000000000000000000000000000000000000000000000000000000000000000000000000000000000000000000002A
:4016C00000000000000000000000000000000000000000000000000000000000000000000000000000000000000000000000000000000000000000000000000000000000EA
:4017000000000000000000000000000000000000000000000000000000000000000000000000000000000000000000000000000000000000000000000000000000000000A9
:020000040003F7
:0200000480007A
:4000000002520040016400400365004001030140020701401708014040090140510A0140340B0140010D0140011701405618014043190140511A01404B1B0140044001407E
:40004000094101400342014007430140024501400246014002480140034C01400A4D01400450014001510140002001408B0F89388A728B0FE204E606EA0186018E0292013F
:400080009430960E98209A069D01A00CA210A420B006B438B501B601BA20BB02BE40BF10D804D904DC10DF010040021005200680070109080A480C800D080E8010201302EC
:4000C0001756184419601A081D841E80210122202540268027202F06328036153C203D803F0444294588464047024D094E04542056A864046504668067408040874093047A
:400100009404978098089B579C019D089E289F20A090A108AA02C0D5C2BEC4FCCA30CCE8CE70D0F0D220D8F001070308050906010712111C1401150B17142201311E360180
:40014000370139023E403F4054095604580459045B045F0180078113823883648456859886098702886089028B988C048D9A9001919893029404952197D8980A99389A109F
:400180009BC09C04A004A19AA5FCA604A703A804A902B07FB30FB5E0B713B802BB28C002C640C9FFCA07CBFFCC40CD20CEF0CF05D008D602D72CD804D904DA04DB04DD016F
:4001C000DF01E040E1A8E240E3200004010404060608070109080C800E6813031501171419401E402001210224022508261C27022D252E20310A3618370138063C803E1458
:400200003F0147204F045410580159686001620267806D016E146F5574C096409808B408C0F4C2F4C478CAE0CCE3CEF3D020D60FD8898240E620000302140433051C060C3F
:400240000703080A0A340B080F03131C143315011604170E18401A151E0829012B16320F330F3410351A366038803A083B283E1040214103460C47BE483449FF4AFF4BFF72
:400280004EF04F44500C580459045A045C115D015F0166C06A406B028101844E85018621884C8A138C408E808F029232940C9501980499019E40A008A473A60CAB02AC7FDE
:4002C000B00EB101B201B47CB502B680B808BA20BF11D418D604D804D904DB04DC01DD10DF01014403080420050406800710090A0A050E220F041090120118081A411B0480
:400300001D041E021F14222124202504261427042B042F0430103110330836013704380839863A053C203D8845404714568857025901614062228A02910293049640978804
:40034000982099609A409E10A010A615A702B004B101B220C077C2EFC40DCA24CCC6CE7BD070D601D80DE620002201220351047305E7060C080C09E70A730C330D010F0E7B
:400380001273140F1544167017311C111D8020082404280C2C7F30303107324C3360340F358037183A283F40406241054204440146CE480C49FF4AFF4BFF4C624DA04EF015
:4003C0004F41500C56025713580459045A045B045C115D115F016640670269106A306B106D106E106F1288098A069C029E0DA003A20CA405A60AA810B410B60FBA80BE1028
:40040000D401D804DB04DD10DF010040010202040320052009020A200B010D010E010F4010A813401420164819111A201B281E091F40204121102204324438423914400121
:400440004110424049104B40514052105A025E885F2269146A8070A871087204850286048AC08B308C018D408E088F0391029242932095E096049780982099209ACC9D1144
:400480009E10A102A480A508A708AD40AF04B112C04FC28DC47FCC0ACE0FD00DD20CD6F1310832203780CC705E08620882089F80A508A620D680D840E2209F80A508A624C2
:4004C00082048620A508A624AB80E660EA800108C008B508EA028908A508A004B004E8041020128074048C208E80A004C408DE04E202E60800030C0310031C03003F0000E7
:4005000080800000400000000000200000000020021008000D00300302090D10025C0402006C00113D000000010002003D0000003D70000C3D1400000F0020600000101F93
:4005400000080200000044043604100002FECD0B1FFFFFFF2200F008040000004000040004040404100000010000C00040011011C0010011400140010000000000000000F2
:4005800000000000000000000060600060000000800040808000800000000000000B0B00000000001000011010000000000000000000000000000000000000000000000094
:4005C00000000000000000000000000000000000000000000000000000000000000000000000000000000000000000000000000000000000000000000000000000000000FB
:4006000000000000000000000000000000000000000000000000000000000000000000000000000000000000000000000000000000000000000000000000000000000000BA
:40064000000000000000000000000000000000000000000000000000000000000000000000000000000000000000000000000000000000000000000000000000000000007A
:40068000000000000000000000000000000000000000000000000000000000000000000000000000000000000000000000000000000000000000000000000000000000003A
:0200000490006A
:0400000000004005B7
:0200000490105A
:04000000BC90ACAF55
:0200000490303A
:0200000066A8F0
:0200000490402A
:4000000000000000000000000000000000000000000000000000000000000000000000000000000000000000000000000000000000000000000000000000000000000000C0
:400040000000000000000000000000000000000000000000000000000000000000000000000000000000000000000000000000000000000000000000000000000000000080
:400080000000000000000000000000000000000000000000000000000000000000000000000000000000000000000000000000000000000000000000000000000000000040
:4000C0000000000000000000000000000000000000000000000000000000000000000000000000000000000000000000000000000000000000000000000000000000000000
:0200000490501A
:0C00000000012E16106900012E1F771160
:00000001FF