:400000000080002011000000310600003106000008B5044B1A6803F53F5302331A6000F027FB00BFFA46004010B5054C237833B9044B13B10448AFF300800123237010BDE7
:400040004881FF1F0000000080160000084B10B51BB108490848AFF300800848036803B910BD074B002BFBD0BDE81040184700BF000000004C81FF1F80160000C880FF1FD6
:4000800000000000F0B5ADF5004D91B062B600F077FB00F05DFD4F4800F08CFB002308E00DF5004240321A44002102F8401C01339BB23F2BF4D9484800F07CFB4FF4FA70A7
:4000C00000F01EFE002501262C461FE040220DF50041284600F0B6F800F0EAF80A2000F00FFEC4F30803092B0CD806EB86035A003A4F3B49384600F09FFE384600F05AFB04
:400100000136B6B24035ADB20134A4B2B4F5007FDCD3344800F04EFB4FF4FA7000F0F0FD314800F047FB4FF4FA7000F0E9FD002501262C461DE040220DEB0501284600F004
:400140006FF80A2000F0DCFD4035ADB2C4F30803092B0CD806EB86035A00204F2349384600F06AFE384600F025FB0136B6B20134A4B2B4F5007FDED31D4800F01BFB4FF4B3
:40018000FA7000F0BDFD1B4800F014FB00252C460EE01DF804304BB1104E22461649304600F04AFE304600F005FB01350134A4B214F4004FEDD01DB9104800F0FBFA02E0FC
:4001C0000F4800F0F7FA0A2000F09AFD0D4800F0F1FAFEE784160000941600007081FF1FA4160000C0160000D0160000E0160000FC1600000C1700002C170000541700005F
:4002000094170000C817000008B5052000F06EF808BD00BF08B5062000F052F808BD00BF10B582B003248DF80440030A8DF805308DF8060013460A46214601A800F070F88D
:4002400002B010BD2DE9F04182B000AF80460E46144602F10A0323F00703ADEB030D6D46FFF7D8FF012000F061FD02238DF800304FEA18238DF801308DF802800023FB7115
:4002800005E0DA1CF35CAB54FB790133FB71FB799C42F6D8002307F1080202F8013DE11CC9B2284600F03CF80837BD46BDE8F08108B5FFF7A9FF10F0010FFAD108BD00BF68
:4002C00010B50446002000F0F1FC204600F0E2FA00F0B8FA10F0080FFAD000F045FB0446012000F0E3FC204610BD00BF10B50446002000F0DBFC204600F0CCFA002000F0BF
:40030000C9FA00F09FFA10F0010FFAD000F02CFB00F02AFB0446012000F0C8FC204610BD2DE9F04383B006460C4617469846002000F0BCFC64B2002511E02146082CA8BFCE
:400340000821C9B206EBC50000F08AFB00F07AFA10F0010FFAD0083C64B201356DB2002CEBDC00F08DFB00F031FB0026009601964FFA88F820E0C146B8F1080FA8BF4FF0B1
:4003800008095FFA89F1684600F06AFB00F05AFA10F0010FFAD0002406E004EBC60500F0E3FA78550134E4B24C45F6DBA8F108084FFA88F8013676B2B8F1000FDBDC01204C
:4003C00000F074FC00F05CFB00F000FB00F01EFB03B0BDE8F08300BFFEE700BFF0B40022174611E050F82760F3B226F0FF0608E001EB420511F812406D78A5550132013BCD
:40040000DBB2002BF4D10137182FEBD9F0BC7047064B1B78DBB203F00701054A11701B09013213704422034B1A707047CF0100496E5800407658004008B50A46002100F043
:40044000F2FC08BD38B50323264A1380182226490A7033200231088002310A700221234A117008224FF040210A7001F500710B701F4B1B78DBB201F2A1410B701D4B1A80C2
:4004800041F25122023B1A80002419250CE01A4B1B7803F0010343EA440404F003044FF4F07000F079FC013D0DB1032CEFD115B90320FFF791FF114B4FF480721A80072254
:4004C0001A7000220E490A704820023108701A700222033B1A700B4A137843F00303137038BD00BF8040004082400040004300400801004922420040254200400440004000
:4005000006400040A243004008B500F081FC08BD38B572B6354A137843F00403137000240CE0334D630019194A0011462A44084691882858FFF780FF0134E4B2072CF0D9EE
:4005400000240BE02A49A3001819420088188022416B006BFFF7D8FF0134E4B2002CF1D024494FF09040FFF739FF234A137843F0020313701032137843F0020313701F4CB5
:40058000237843F040032370A2F58632513A137843F010031370082219491A48FFF7B4FF0A2219491948FFF7AFFF082218491948FFF7AAFF0A2218491848FFF7A5FF184ACB
:4005C000137843F008031370164D61232B70FFF739FF81232B700122134B1A70FFF718FF0E2221461148FFF78FFF38BDE8460040F01700006400004803500140A043004067
:40060000700500480251004078050048C051004084050048125100408C05004820510040224300400048004004000840B043004008B500F0C1FB03680C2B00D1FEE7FEE704
:4006400008B5094B1A681044084BC31A802B02DC054B186005E000F0AFFB0C2303604FF0FF32104608BD00BFCC80FF1FF881FF1F08B5104E104D16E029686B68AC680022AE
:4006800004E051F8040B43F8040B0432A242F8D1E868002203E0002143F8041B04328242F9D11035013E002EE6D100F08BFBFFF7E9FCFEE7010000008418000008B5104AEA
:4006C000104B1A60104A136843F40073136000230AE0032B03D80D4A52F8231000E00C490C4A42F8231001332F2BF2D90A4B1A780A4B1A70074A0A4B1A60FFF709FF08BD4F
:400700000004FA050CED00E014ED00E000000000310600000080FF1FBC760040C080FF1F08ED00E07222074B1A702022033B1A7006225E3B1A70472210331A700022B23B78
:400740001A7070478B65004010B500F02DFB04460A4A137843F020031370033A137843F010031370A2F58072137843F01003137000F0A8FA204600F01BFB10BD9B650040B0
:4007800008B5054B1B7823B9FFF7CCFF0122024B1A70FFF7D9FF08BD6481FF1F034B1B7813F0040FFAD1024B18707047686400404964004038B5074B1B782BB938BDFFF784
:4007C000EDFF0134A4B201E005460024285D0028F5D138BD6481FF1F0222014B1A60704700E100E00122014B1A60704700E100E008B500F0D9FA0C4A137843F020031370CA
:40080000FF32137843F010031370A2F58072137843F01003137000F0CBFA00F061FAFFF7DBFFFFF7DFFF08BD9A6400400222014B1A60704780E100E00122014B1A6070472D
:4008400080E100E010B5FFF7F1FF064B1C78064A137803F009031C4300231370FFF7BCFF204610BD69650040E081FF1F10B5FFF7E3FF064B1B78064A147804F040041C4363
:4008800000231370FFF7AEFF204610BD69640040F181FF1F10B504462B4B1A7802F0FF0312B1013BDBB200E00723284A1278D2B29342F1D0FFF7BAFF254B1978254A1378BE
:4008C00003F009030B4313701F4B1A78D2B21F4B1B78DBB29A4207D11E4B1B7813F0040F02D01D4B1C702CE0184A13780133DBB213701378DBB2072B02D90022134B1A7026
:40090000124B1A78D2B2104B1B78DBB29A420ED10D4A13780133DBB213701378DBB2072B02D90022084B1A7001220C4B1A70074B1B78DBB20A4AD4540A4A137843F00403B9
:400940001370FFF749FF10BDED81FF1FEF81FF1F69650040E081FF1F4A640040EC81FF1FD881FF1F8965004010B5FFF765FF134B1A78D2B2124B1B78DBB29A4214D0114BF8
:400980001B7813F0FF0F0CD10C4A13780133DBB213701378DBB2072B06D90022074B1A7002E00022074B1A70044B1B78DBB2064AD45CE4B2FFF716FF204610BDF081FF1F38
:4009C000EE81FF1FD481FF1FE481FF1F08B501E0094B1B78094B1B7813F0200FF8D1FFF72BFF0023064A1370064A1370064A1370FFF7F8FE08BD00BF5A64004069640040D6
:400A0000D481FF1FF081FF1FEE81FF1F08B500F0CBF90E4B1A7842F001021A701A7802F0FE021A7000F0C4F9FFF700FF0023084A1370084A1370084A1370084A137803F0EA
:400A4000FB031370FFF7C8FE08BD00BF9A640040EC81FF1FED81FF1FEF81FF1F8965004070B506460C46002506E0705DFFF712FF0135EDB2013CE4B2002CF6D170BD00BF7B
:400A800008B501E00A4B1B780A4B1B7813F0200FF8D100F089F9084B1A7842F001021A701A7802F0FE021A7000F082F908BD00BF5A640040696400409A64004010B50F227B
:400AC000184B1A70184C022323600721012000F04BF91649012000F033F9012323600721002000F041F91249002000F029F9FFF7C7FF00240F4B1C700F4B1C700F4B1C70AC
:400B00000F4B1C700F4B1C700F4B1C70FFF79AFEFFF7ACFE0D4B1C702022A3F580731A7010BD00BF8A64004080E100E06D0B00000D0C0000D481FF1FF081FF1FEE81FF1F7F
:400B4000EC81FF1FED81FF1FEF81FF1F8965004008B5054B1B7823B9FFF7B0FF0122024B1A70FFF745FE08BD6681FF1F28E01F4B19781F4A137803F009030B431370137832
:400B800013F0040F24D01B4B1B7813F0FF0F0CD1194A13780133DBB213701378DBB2072B06D90022144B1A7002E00022114B1A70114B1B78DBB2114AD35CDBB2104A137084
:400BC0000D4B1A78D2B20F4B1B78DBB29A42CED1094B1A78D2B20B4B1B78DBB29A4204D1094A137803F0FB031370704769650040E081FF1FEC81FF1FED81FF1FD881FF1FDD
:400C00004A640040EF81FF1F89650040204B1A7820490B7803F0400313430B7032E01E4B1A78D2B21D490B780133DBB20B700B78DBB2072B02D90021184B1970174B197847
:400C4000C9B2174B1B78DBB299420ED114490B780133DBB20B700B78DBB2072B02D900210F4B197001210F4B19700C4B1B78DBB20D49CA54064B1A7806490B7803F04003A5
:400C800013430B70034B1B7813F0200FC7D1704769640040F181FF1F5A640040EE81FF1FF081FF1FD481FF1FE481FF1F044A137803F0EF03000100F0100018431070704703
:400CC00020510040054A137843F0020313701032137843F002031370704700BFA2430040054A137843F0010313701032137843F001031370704700BFA243004001BE70475F
:400D000010B5044605E0084B186800F045F8A4F50044B4F5004FF6D8034B586800FB04F000F03AF810BD00BFD080FF1F08B5034B1B7A00FB03F000F02FF808BDD080FF1F2B
:400D400070B504460E46074B1D681F2802D90020FFF7D4FF04F01F04103455F8240045F8246070BD08ED00E038B504460D46072902D90020FFF7C2FF1F2C02D90020FFF797
:400D8000BDFF04F01F0000F1604000F564406D01EDB2057038BD00BF0230800803D000BF01380046FCD17047EFF3108072B6704780F31088704700BF014B1868704700BFA1
:400DC0004081FF1F0E4B70B51E460E4C0025E41AA410A54204D056F8253098470135F8E700F03EFD084B094C1E46E41AA4100025A54204D056F8253098470135F8E770BD22
:400E00006C1800006C1800006C1800007418000010B5431E0A44914204D011F8014B03F8014FF8E710BD03460244934202D003F8011BFAE7704700000EB400B54FF4027121
:400E40009CB0ADF814106FF00041049107914FF6FF711DAB02900690084853F8042BADF81610006802A9019300F064F8029B00221A701CB05DF804EB03B070474081FF1FC1
:400E80002DE9F0478E6882469E420C46914698463ED88A8912F4906F3AD02568096902236F1A656905EB450595FBF3F57B1C43449D4238BF1D4653050FD5294600F040FBAE
:400EC000064698B13A462169FFF7A2FFA38923F4906343F08003A38113E02A4600F08EFB064670B92169504600F0DEFA0C23CAF80030A3894FF0FF3043F04003A381BDE879
:400F0000F08726613E44266046466561ED1BA560464528BF464649463246206800F0A8FAA36800209B1BA36023681E442660BDE8F08700002DE9F04F9DB003938B898046A8
:400F40001C060D4616460DD50B695BB9402100F0F7FA2860286118B90C23C8F80030CDE040236B610023099320238DF82930DFF89CB130238DF82A3037463C4614F8013B9A
:400F80001BB9B7EB060910D003E0252BF9D02746F3E74B46324629464046FFF771FF013000F0A780099B4B4409933B78002B00F0A08000234FF0FF3204930793059206932C
:400FC0008DF853301A930126052221784E4800F041FA671C049B38B14B4A3C46801A06FA00F018430490EFE7D90644BF20228DF853201A0744BF2B228DF8532022782A2AB0
:4010000003D0079A00210A200BE0039A111D12680391002A10DA524243F00200079204900BE027463B780134303B092B03D800FB02320121F5E701B107923B782E2B1ED1F6
:401040007B782A2B0AD1039B02371A1D1B680392002BB8BF4FF0FF33059310E0002319460593781C0A2407463A780130303A092A03D804FB01210123F5E703B10591032278
:401080003978224800F0E6F940B14023CBEB000003FA00F0049B013718430490397806221B487E1C8DF8281000F0D4F988B1194B33B9039B073323F007030833039314E0F6
:4010C00003AB00932A46144B04A94046AFF3008007E003AB00932A460F4B04A9404600F093F8B0F1FF3F824603D0099B5344099342E7AB895B0601D4099801E04FF0FF3017
:401100001DB0BDE8F08F00BF2C180000321800003618000000000000810E00002DE9F04791461F460A698B6806469342B8BF1346C9F8003091F843200C46DDF8208012B14D
:401140000133C9F800302368990642BFD9F800300233C9F80030256815F0060510D104F1190A07E00123524639463046C04701301AD00135E368D9F800209B1A9D42F1DBD6
:4011800094F843302268003318BF012392060FD5E118302081F843005A1C94F845102244023382F8431003E04FF0FF30BDE8F08704F1430239463046C0470130F4D0226816
:4011C000D9F80050E36802F00602042A08BF5D1B2269A3680CBF25EAE57500259342C4BF9B1AED184FF000091A344D4509D00123224639463046C0470130D5D009F10109B8
:40120000F3E70020BDE8F0872DE9F04317460A7E85B06E2A984606460C460C9B01F1430E00F0AE8011D8632A22D009D8002A00F0BB80582A40F0CA8081F84520834955E0A0
:40124000642A1ED0692A1CD0C0E0732A00F0B08009D86F2A2ED0702A40F0B8800A6842F020020A603EE0752A24D0782A3AD0ADE01A6801F14205111D1960136884F84230B7
:40128000A8E021681A6811F0800F02D0111D196008E011F0400F02F10401196002D0B2F9003000E01368002B3CDA2D225B4284F8432037E021681A6811F0800F02D0111D23
:4012C000196007E011F0400F02F10401196001D0138800E01368227E5C496F2A14BF0A2208221BE078225A4984F845202268186812F0800F00F104051D6003D1550601D5CF
:40130000038800E00368D00744BF42F0200222601BB9226822F0200222601022002084F8430001E049490A226568002DA56008DB206820F0040020602BB9002D7DD175464B
:401340000CE0002B79D07546B3FBF2F002FB1033CB5C05F8013D03460028F5D1082A0BD12368DA0708D5236962689A42DEBF302305F8013C05F1FF35C5EB0E0323612EE0B9
:4013800008681A6810F0800F496903D0101D1860136808E010F0400F02F104001860136801D0198000E0196000232361754616E01A68111D1960156800216268284600F0DC
:4013C00049F808B1401B6060636804E004F1420584F8422001232361002384F84330CDF800803B4603AA21463046FFF797FE013002D14FF0FF3026E023692A463946304611
:40140000C0470130F5D023689B0710D5002504F1190907E001234A4639463046C0470130E7D00135E368039A9B1A9D42F2DBE068039B9842B8BF184605E00B7804F142052A
:4014400084F842308AE705B0BDE8F0833D1800004E18000010B5C9B202449042034605D01C7801308C42F8D1184610BD002010BD884210B501EB020301D8421E0BE098421D
:40148000FBD28118D21AD34204D013F8014D01F8014DF8E710BD994204D011F8014B02F8014FF8E710BD000038B50546002944D051F8043C0C1F002BB8BFE41800F0D4F828
:4014C0001E4A1368114613B96360146030E0A3420DD92268A018834201BF18685B681218226063600C6023E0A24203D813465A68002AF9D118681918A1420BD121680144E0
:4015000058188242196013D110685268014419605A600DE002D90C232B6009E021686018824201BF106852680918216062605C602846BDE8384000F098B838BD6C81FF1F63
:4015400070B5CD1C25F0030508350C2D38BF0C25002D064601DBA94202D90C23336046E000F082F8234B1C681A462146A1B10B685B1B0ED40B2B03D90B60CC18CD501EE0E3
:401580008C420BBF63684B681360636018BF0C4615E00C464968E9E7174C23681BB9304600F052F820602946304600F04DF8431C18D0C41C24F00304A0420DD125603046E5
:4015C00000F053F804F10B00231D20F00700C31A0ED05A42E25070BD211A304600F034F80130EBD10C233360304600F03EF8002070BD00BF6C81FF1F6881FF1FF8B5074673
:4016000015460E4621B91146BDE8F840FFF798BF1AB9FFF749FF2846F8BD00F027F885420ED929463846FFF78BFF044650B131462A46FFF7EDFB31463846FFF735FF01E032
:401640003046F8BD2046F8BD38B5064C0023054608462360FEF7F4FF431C02D1236803B12B6038BDF481FF1F7047704751F8040C0028BEBF091851F8043CC0180438704759
:40168000000000005541525420737461727465640D0A0000426567696E2077726974696E670D0A0057726974696E672061742025642070657263656E74200D0A00000000D6
:4016C00057726974696E6720646F6E650D0A0A00426567696E2072656164696E670D0A0052656164696E672061742025642070657263656E74200D0A00000000526561640D
:40170000696E6720646F6E650D0A0A00436F6E74726F6C206F6E2064617461207265616420737461727465640D0A000056414C554520444946464552454E542046524F4D7A
:4017400020302843454C4C412030782578290D0A000000000A454550524F4D2052455345545445442053554343455346554C4C592C2054484520444556494345204953204E
:40178000524541445920544F20424520555345440D0A00000A414E204552524F52204F434355524544204F4E20454550524F4D2052455345542C20504C4541534520524575
:4017C0005452590D0A0000002A2A2A2A2A2A2A2A2A2A2A2A2A2A2A2A2A2A2A2A2A2A2A2A2A2A2A2A2A2A2A2A2A2A2A2A2A0D0A00305100404000F0510040100000000140D7
:40180000000A800A0140800500140140000800400140000A004C01400002005001402000000A0140F004004880004300232D302B2000686C4C00656667454647003031325A
:401840003334353637383941424344454600303132333435363738396162636465660000F8B500BFF8BC08BC9E4670474D000000BD060000F8B500BFF8BC08BC9E467047E9
:401880002900000098180000C880FF1F80000000B00000000000000000000000F881FF1F0000E02EC05D00001800000000366E01000000000000000000000000000000003A
:4018C000000000000000000000000000000000002A1800000000000000000000000000000000000000000000000000000000000000000000000000000000000000000000A6
:4019000000000000000000000000000000000000E080FF1F000000000000000000000000000000000000000000000000000000000000000000000000000000000000000029
:401940000000000000000000000000000000000000000000000000000000000000000000000000000000000000000000000000000000000000000000000000000000000067
:401980000000000000000000000000000000000000000000000000000000000000000000000000000000000000000000000000000000000000000000000000000000000027
:4019C00000000000000000000000000000000000000000000000000000000000000000000000000000000000000000000000000000000000000000000000000000000000E7
:401A000000000000000000000000000000000000000000000000000000000000000000000000000000000000000000000000000000000000000000000000000000000000A6
:020000040003F7
:0200000480007A
:40000000045200400264004002650040010501400107014051080140410901400E0A0140360B0140011701405B180140481901404E1A01404C1B0140034001400641014041
:40004000064201400443014002450140014601400247014003480140074D014004500140015101400040012061806440880F8A0F88388B72E214E60203010E0110041A0298
:400080001B0125012A022D01300132023301340439083E145401580459045B045C115D105F0182808303848D851488408B208C028D108E0D8FAC900D92809442950C96082F
:4000C0009771988D99DC9B229C8D9D109F40A011A222A48DA862A909AA14ABD0B00FB11FB3E0B480B670BA82BB08BE10C056C103C5ECC70BC813C9FFCAFFCBFFCEF0CF44A4
:40010000D00CD440D604D804D904DA04DB04DC10DD01DF01E6C0EA40EB02004801220244054008A009040A800E800F04102012081302172018401B501E081F05210D22014E
:4001400027202B082D402F10311832803710380839023B903E01410448084A724B9150045E685F016250636087408D048F40928098E099079A149B029E01A025A208A30128
:40018000A740B420B508B622C08FC25FC44ECA54CC2ECE8FD002D20CD6F0D80F8D098F169515970A99029B0D9D039F1CB50FB710BB20BF40D904DF01005001080240088032
:4001C00009080A410C400D801028128218141B0120022108228A23022580262029402A042B4031083242354036A8388039153C403F8040444220480149064A085254622074
:40020000682C69156AC17040720282018C148D01C00FC20DC40FCA0BCC7BCE1FD007D20CD804E210E20101230304042205040651073908E70C800D0E144415051631173A3B
:4002400018011A0E1B1024E730803260333034073618370F39803E40406441054202440145CE480349FF4AFF4BFF4C624DA04EF04F41500C5418580459045A045B045C01AC
:400280005D115F016640670269106A306B106D106E106F12840C85038653870489038A0C8B048C518D038E068F0C9451960E9705990A9B04A208A640A820AA43AB08B0403F
:4002C000B10FB230B40FB808BA20BB02BE01D409D604D804D904DB04DC11DF010044030804200508070109080C040E24100812B01704180419101A401B081D821E24204094
:400300002202254027202B083008311036083720384039083A103C023D88459246404C814D404F14584059255F026201630266806708832091089202930A95409641972424
:40034000984099259D509E019F10A001A10CA228A301A408A682A708C0E7C264C42ECA04CC66CEDED0B0D230D68FD83905030D03170119021C0222012A01300132023503B6
:4003800039203E053F104002460449FF4A074BFF4C404D204EF04F055008580459045A045D015F01604061A862406320803F811C83E1840C8508880489E78B188C018D10B7
:4003C00091FF943395C0960C980399189C1F9E209FE3A13CA223A3C2A402A544A81CA980AA23AC08AF04B210B31FB40FB538B62CB7C0BAA2BB08BE04D602D711D804D904BA
:40040000DB04DC11DD10DF010402054107280A020B300E0D0F101080112014401661171019041A401D011E211F1020042510260827122C042D092E202F01300831103440E0
:40044000350136043720384039083C803E093F10400442C0500852805E206C106F0574407609772881048501860889489040910892069302942296019730980499109A40C7
:400480009D489E809F17A080A408A510A680C0F0C2E1C4FACAF0CCF6CEFAD004D620E40132203580CC305E0262049D80A620D680D84081808E019D809E04A621E220862000
:4004C0009E04A620E6400310C0089B10B710EE0282049E04E2801040700480048840C408DC01E20100030C0310031C03000F0000609A00008498000201020098569A09000C
:40050000043880C00A2110D8000000008498000207FC380384020000800004000413006402E07F0F800000130800000A000011006405200003DEFB0C1FFFFFFF2200F0087E
:40054000040000000000022404040404000000010000C00040011011C00100114001400100000000000000000000000000000000006060006000000080004080800080006A
:4005800000000000000B0B000000000010000110100000000000000000000000000000000000000000000000000000000000000000000000000000000000000000000000F4
:4005C00000000000000000000000000000000000000000000000000000000000000000000000000000000000000000000000000000000000000000000000000000000000FB
:4006000000000000000000000000000000000000000000000000000000000000000000000000000000000000000000000000000000000000000000000000000000000000BA
:40064000000000000000000000000000000000000000000000000000000000000000000000000000000000000000000000000000000000000000000000000000000000007A
:40068000000000000000000000000000000000000000000000000000000000000000000000000000000000000000000000000000000000000000000000000000000000003A
:0200000490006A
:0400000000004005B7
:0200000490105A
:04000000BC90ACAF55
:0200000490303A
:02000000AB4E05
:0200000490402A
:4000000000000000000000000000000000000000000000000000000000000000000000000000000000000000000000000000000000000000000000000000000000000000C0
:400040000000000000000000000000000000000000000000000000000000000000000000000000000000000000000000000000000000000000000000000000000000000080
:400080000000000000000000000000000000000000000000000000000000000000000000000000000000000000000000000000000000000000000000000000000000000040
:4000C0000000000000000000000000000000000000000000000000000000000000000000000000000000000000000000000000000000000000000000000000000000000000
:0200000490501A
:0C00000000012E16106900012E20BBB775
:00000001FF