:400000000080002011000000ED040000ED04000008B5044B1A6803F53F5302331A6000F085FA00BFFA46004010B5054C237833B9044B13B10448AFF300800123237010BD16
:400040004881FF1F0000000060210000084B10B51BB108490848AFF300800848036803B910BD074B002BFBD0BDE81040184700BF000000004C81FF1F60210000C880FF1F00
:400080000000000008B562B600F008FB0A4800F0CFFB0024094B1C70094B1C7000F0A0FB00F0FCFA00F0EAFD064800F0B9FA00F0F9FD054B1C70FEE7450100008881FF1F3B
:4000C0008981FF1FCD0000008A81FF1F10B500F041FB00F057FE164B1860002801DA00221A60134B1B68B3F5803F03DB4FF6FF720F4B1A600E4C206800F032FE606001F0D1
:40010000DDF800220B4B00F08BFF00220A4B01F065FA01F04BFBA06001F098FB074C02460749204601F0F8FB204600F0E7FA10BD6481FF1F00407F40000024408C81FF1FAC
:400140006421000008B500F0B7FA234B1B782BB93F283FD10122204B1A7008BD1F4B1B78002B34D1A0F14203322B33D8DFE803F01A32323222323232323232323232252B5A
:40018000321E28323232323232323232323232321A32323222323232323232323232252B321E280001220E4B1A7008BD00220C4B1A7008BD094B187008BD084B187008BD0D
:4001C000064B187008BD0022034B1A7008BD0022024B1A7008BD00BF8881FF1F8981FF1F8B81FF1FFEE700BFF0B40022174611E050F82760F3B226F0FF0608E001EB42054A
:4002000011F812406D78A5550132013BDBB2002BF4D101371D2FEBD9F0BC70470B4B1B78DBB203F007010A4A11701B09013213701023A2F23272137002F6C3121370583205
:4002400013704422034B1A70704700BFCF0100496E5800407658004008B50A46002101F052FB08BD08B501F043FB08BD38B50024354B1C80502202331A700B2202331A80DE
:400280001823324A13704FF49C71023211800232137045F6BF51023211800232137004222B492C48FFF7DEFF02222B4B1A7008224FF040231A70032103F500731970274B8C
:4002C0001B78DBB226490B70264B1A8041F25122023B1A8019250CE0234B1B7803F0010343EA440404F003044FF4F07000F084FE013D0DB1032CEFD115B90320FFF772FF82
:400300001A4B4FF480721A8007221A70002218490A704820023108701A700222033B1A7004220A331A70134A137843F00F031370013A137843F001031370013A137843F03A
:400340008003137038BD00BF804000408640004070060048004100400043004008010049A146004022420040254200400440004006400040A2430040012807D8044B53F866
:4003800020201844017A13780B431370704700BF6C210000012808D8044B53F820201844017A137823EA0103137070476C21000038B572B6394A137843F0040313700024A6
:4003C0000BE0374863001A19510001440A46098AD068FFF741FF0134E4B2082CF1D900240BE02F49A3001819420088180622816C406CFFF737FF0134E4B2002CF1D02949F9
:400400004FF09040FFF7F0FE0A24274B1C70274A137843F0020313701032137843F002031370234D2B7843F040032B70A2F58632513A137843F01003137022461D491E48D8
:40044000FFF710FF22461D491D48FFF70BFF08221C491D48FFF706FF22461C491C48FFF701FF08221B491C48FFF7FCFE1B4A137843F0080313701A4C61232370FFF7F6FE34
:40048000812323700122174B1A70FFF7C7FE0E2229461548FFF7E6FE38BD00BFE84600406C210000780000488358004003500140A04300403C060048005100404806004873
:4004C000C051004054060048125100405C060048205100406806004832510040224300400048004004000840B043004008B501F0D3F903680C2B00D1FEE7FEE708B5094B1E
:400500001A681044084BC31A802B02DC054B186005E001F0C1F90C2303604FF0FF32104608BD00BFCC80FF1FA881FF1F08B5104E104D16E029686B68AC68002204E051F812
:40054000040B43F8040B0432A242F8D1E868002203E0002143F8041B04328242F9D11035013E002EE6D101F09DF9FFF78BFDFEE7010000001422000008B5104A104B1A6035
:40058000104A136843F40073136000230AE0032B03D80D4A52F8231000E00C490C4A42F8231001332F2BF2D90A4B1A780A4B1A70074A0A4B1A60FFF7FBFE08BD0004FA0571
:4005C0000CED00E014ED00E000000000ED0400000080FF1FBC760040C080FF1F08ED00E0024B1B68C3F88400704700BF08ED00E04001C0B2014B1870704700BF11E400E0E1
:400600004FF40032014B1A60704700BF00E100E04FF40032014B1A60704700BF80E100E010B50446FFF7F4FF2046FFF7D9FF0720FFF7DEFFFFF7E4FF10BD00BF7222084BE4
:400640001A702022013B1A700622A3F5B0731A70472210331A70002203F253131A7070478965004010B500F0CFFC04460A4A137843F020031370013A137843F01003137048
:400680000332137843F01003137000F0DFF8204600F0BEFC10BD00BF9965004008B5054B1B7823B9FFF7CAFF0122024B1A70FFF7D9FF08BD7081FF1F084B1B78DBB213F0C3
:4006C000200F06D0064A1078C0B213F01E0F02D17047002070470020704700BF686500404A650040034B1B7813F0040FFAD1024B187070476B6500404B65004038B5074BFB
:400700001B782BB938BDFFF7EDFF0134A4B201E005460024285D0028F5D138BD7081FF1F084A137843F0010313701032137843F00103137002F64D32137843F0010313703F
:40074000704700BFA3430040014B1870704700BF034F0040014B1878704700BF034F0040014B1880704700BF044F0040014B1880704700BF064F004008B5164A137803F0A6
:40078000010313700232137803F0FC031370124B1A7802F0CF021A701A7842F030021A701A7802F0F0021A701A7842F00F021A700A4A137843F00103137040F2E730FFF78B
:4007C000CFFF40F2E730FFF7D1FF0820FFF7BCFF08BD00BF004F00400B4F0040014F004008B5054B1B7823B9FFF7C6FF0122024B1A70FFF795FF08BD7281FF1F014B1B68A6
:400800001864704708ED00E04001C0B2014B1870704700BF00E400E00122014B1A60704700E100E00122014B1A60704780E100E010B50446FFF7F6FF2046FFF7DFFF072052
:40084000FFF7E2FFFFF7E8FF10BD00BF054A137843F0040313701032137843F004031370704700BFA243004001BE704708B5034B1B7A00FB03F000F0BFFB08BDD080FF1F9B
:4008800070B504460E46074B1D681F2802D90020FFF7EAFF04F01F04103455F8240045F8246070BD08ED00E038B504460D46072902D90020FFF7D8FF1F2C02D90020FFF730
:4008C000D3FF04F01F0000F1604000F564406D01EDB2057038BD00BF10B59DF80840012C51D1013809282ED8DFE800F0052D2D052D2D0F192D230F2B03D92548007840B278
:4009000022E02448007840B21EE00F2B03D92248007840B218E02148007840B214E00F2B03D91F48007840B20EE01E48007840B20AE00F2B03D91C48007840B204E01B487E
:40094000007840B200E0002001EB401101FB02F1C90B8AB20D2B0BD8C3F10E0289B211418AB2611E124800EB810101338B7005E0631E0F4901EB83030F219970013C0C4BB7
:4009800023F8242010BD0020FFF76EFF10BD00BF180100491C010049190100491D0100491A0100491E0100491B0100491F0100497481FF1FF8B5074600F026FB06460D4D0C
:4009C0002B7843F003032B700B4C237843F0030323700A4B1F700320FFF748FF2B7803F0FC032B70237803F0FC032370304600F00FFBF8BDF8460040F946004092580040E2
:400A00000022324B1A7101285FD170B53822304B1A70042202331A70062201331A70002401331C7001331C703F2201331A7002331C7001331C7001331C7001250A331D70F0
:400A4000502203F527631A700A2201331A702C2201331A7001331C70442203331A70482201331A7001331D7002331D70112201331A70192201331A70972201331A7052209E
:400A8000FFF798FF5822134B1A7001331C70052605331E70022201331A7001331C7001331C70204600F094F943F233320A4B1A602946304600F0B0F92946252000F030FA9C
:400AC00006491D20FFF7DCFE70BD70477481FF1F004E004094580040A081FF1FAD0D0000F0B583B0284D01272F70284E00247471102000F07FF9102000F000FA07211D2046
:400B0000FFF7D2FE0422224B1A7001331C7007331C70204A137843F0180313701E4B1C7003F2F5231C7001331C700A22A3F209331A7001331C7002331C705B2205331A70F1
:400B40005E2201331A7004331C701422A3F68C231A70009710234FF4004248F6F0510220FFF7BAFE2B78013B06EB83039A780B4B1A702B78013B36F82320094B1A802878A8
:400B8000FFF73EFF03B0F0BDE080FF1F7481FF1F96580040075B0040935800400E4E00400C4E004070B500F02FFA06462A4B1B782A4B1A7842F001021A701A7842F01002B2
:400BC0001A7010331A7842F001021A701A7842F010021A70224D2B7843F002032B70214C237843F0020323701F4A137843F0030313700320FFF73AFE2B7803F0FD032B708D
:400C0000237803F0FD032370184A137843F0060313707A22164B1A70164A137843F0010313701032137843F0010313700F3A137843F0010313701032137843F0010313701F
:400C40004FF000530C4A1360A2F5C0721360304600F0DEF970BD00BFE080FF1FAA430040F8460040F9460040915800407758004082580040A143004080E200E008B5084B44
:400C80009B794BB9064BDB7913F0FF0F01D1FFF727FF0122024B9A71FFF784FF08BD00BF7481FF1F024A137843F0010313707047004E0040024A137803F0FE031370704712
:400CC000004E0040094B1B7913F0FF0F03D0074B5B79DBB203E0064B1B7803F00103012B01D00028EED01846704700BF7481FF1F014E0040154B1B7803F00303012B07D8D9
:400D0000134B1888023B1B889BB243EA004013E0022B0AD10E4B1888023B1B7843EA00430C4A107843EA002006E00B4B188883B2074A108843EA0040084B1B7913F0FF0F5D
:400D400002D00022054B5A71704700BF144E0040124E0040114E0040104E00407481FF1F064B9B68C01A4FF47A7303FB00F0044B1B6890FBF3F000B2704700BF7481FF1F95
:400D8000A081FF1F10B5084A137843F004031370FFF788FF0020FFF795FFFFF7ABFF0446FFF788FF204610BD014E0040704700BF10B5002404E02046FFF7ECFA0134E4B2F5
:400DC000012CF8D9FF22014B1A7010BDE180FF1F10B50446FFF7ECFF2046FFF7CDFA014B1C7010BDE180FF1F014B188880B2704780400040034B1A7800F0F8001043187003
:400E0000704700BF82400040024B187800F00700704700BF8240004070B505460E46FFF7F3FF0446FFF7E0FFA84256D02B4B1B7803F0010294B900B185B938B9284B1D80D7
:400E4000284A137803F0BF03137070BD254A137843F040031370224B1D8070BD22B3002321490B7001240F310C7004310B700C390B7803F07F030B701A4B1B7813F0080FAE
:400E800000D08DB9194B18800721013B1970164B1B7813F0010FFAD110490B7803F0FE030B700021104B19700C4B1B7813F0010F0DD00E4B1D800EB1032200E001220A4B05
:400EC0001A70094B1B7813F0010FFAD170BD044B1D8002490B7813430B7070BDA243004080400040824000400140004002400040014B188880B2704700410040034B1A785E
:400F000000F0F80010431870704700BF02410040024B187800F00700704700BF0241004070B505460E46FFF7F3FF0446FFF7E0FFA84256D02B4B1B7803F0010294B900B150
:400F400085B938B9284B1D80284A137803F0BF03137070BD254A137843F040031370224B1D8070BD22B3002321490B70012413310C7004390B7008390B7803F07F030B7078
:400F80001A4B1B7813F0080F00D08DB9194B18800721013B1970164B1B7813F0010FFAD110490B7803F0FE030B700021104B19700C4B1B7813F0010F0DD00E4B1D800EB16F
:400FC000032200E001220A4B1A70094B1B7813F0010FFAD170BD044B1D8002490B7813430B7070BDA1430040004100400241004001400040024000400230800803D000BFC9
:4010000001380046FCD17047EFF3108072B6704780F31088704700BF81F0004102E000BF83F0004330B54FEA41044FEA430594EA050F08BF90EA020F1FBF54EA000C55EAA3
:40104000020C7FEA645C7FEA655C00F0E2804FEA5454D4EB5555B8BF6D420CDD2C4480EA020281EA030382EA000083EA010180EA020281EA0303362D88BF30BD11F0004F74
:401080004FEA01314FF4801C4CEA113102D0404261EB410113F0004F4FEA03334CEA133302D0524263EB430394EA050F00F0A780A4F10104D5F1200E0DDB02FA0EFC22FA14
:4010C00005F2801841F1000103FA0EF2801843FA05F359410EE0A5F120050EF1200E012A03FA0EFC28BF4CF0020C43FA05F3C01851EBE37101F0004507D54FF0000EDCF1C8
:40110000000C7EEB00006EEB0101B1F5801F1BD3B1F5001F0CD349085FEA30004FEA3C0C04F101044FEA445212F5800F80F09A80BCF1004F08BF5FEA500C50F1000041EBFF
:40114000045141EA050130BD5FEA4C0C404141EB010111F4801FA4F10104E9D191F0000F04BF01460020B1FA81F308BF2033A3F10B03B3F120020CDA0C3208DD02F1140C3D
:40118000C2F10C0201FA0CF021FA02F10CE002F11402D8BFC2F1200C01FA02F120FA0CFCDCBF41EA0C019040E41AA2BF01EB0451294330BD6FEA04041F3C1CDA0C340EDC76
:4011C00004F11404C4F1200220FA04F001FA02F340EA030021FA04F345EA030130BDC4F10C04C4F1200220FA02F001FA04F340EA0300294630BD21FA04F0294630BD94F09C
:40120000000F83F4801306BF81F480110134013D4EE77FEA645C18BF7FEA655C29D094EA050F08BF90EA020F05D054EA000C04BF1946104630BD91EA030F1EBF00210020EC
:4012400030BD5FEA545C05D14000494128BF41F0004130BD14F580043CBF01F5801130BD01F0004545F0FE4141F470014FF0000030BD7FEA645C1ABF194610467FEA655C49
:401280001CBF0B46024650EA013406BF52EA033591EA030F41F4002130BD00BF90F0000F04BF0021704730B54FF4806404F132044FF000054FF0000150E700BF90F0000F19
:4012C00004BF0021704730B54FF4806404F1320410F0004548BF40424FF000013EE700BF42004FEAE2014FEA31014FEA02701FBF12F07F4393F07F4F81F06051704792F068
:40130000000F14BF93F07F4F704730B54FF4607401F0004521F0004120E700BF50EA010208BF704730B54FF000050AE050EA010208BF704730B511F0004502D5404261EB20
:4013400041014FF4806404F132045FEA915C3FF4DCAE4FF003025FEADC0C18BF03325FEADC0C18BF033202EBDC02C2F1200300FA03FC20FA02F001FA03FE40EA0E0021FA33
:4013800002F11444C1E600BF70B54FF0FF0C4CF4E06C1CEA11541DBF1CEA135594EA0C0F95EA0C0F00F0DEF82C4481EA030621EA4C5123EA4C5350EA013518BF52EA0335E0
:4013C00041F4801143F4801338D0A0FB02CE4FF00005E1FB02E506F00042E0FB03E54FF00006E1FB03569CF0000F18BF4EF0010EA4F1FF04B6F5007F64F5407404D25FEAC1
:401400004E0E6D4146EB060642EAC62141EA55514FEAC52040EA5E504FEACE2EB4F1FD0C88BFBCF5E06F1ED8BEF1004F08BF5FEA500E50F1000041EB045170BD06F00046D4
:4014400046EA010140EA020081EA0301B4EB5C04C2BFD4EB0C0541EA045170BD41F480114FF0000E013C00F3AB8014F1360FDEBF002001F0004170BDC4F10004203C35DAAA
:401480000C341BDC04F11404C4F1200500FA05F320FA04F001FA05F240EA020001F0004221F0004110EBD37021FA04F642EB06015EEA430E08BF20EAD37070BDC4F10C0445
:4014C000C4F1200500FA04F320FA05F001FA04F240EA020001F0004110EBD37041F100015EEA430E08BF20EAD37070BDC4F1200500FA05F24EEA020E20FA04F301FA05F262
:4015000043EA020321FA04F001F0004121FA04F220EA020000EBD3705EEA430E08BF20EAD37070BD94F0000F0FD101F00046400041EB010111F4801F08BF013CF7D041EA61
:40154000060195F0000F18BF704703F00046520043EB030313F4801F08BF013DF7D043EA0603704794EA0C0F0CEA135518BF95EA0C0F0CD050EA410618BF52EA4306D1D161
:4015800081EA030101F000414FF0000070BD50EA410606BF1046194652EA430619D094EA0C0F02D150EA013613D195EA0C0F05D152EA03361CBF104619460AD181EA030135
:4015C00001F0004141F0FE4141F470014FF0000070BD41F0FE4141F4780170BD70B54FF0FF0C4CF4E06C1CEA11541DBF1CEA135594EA0C0F95EA0C0F00F0A7F8A4EB0504E2
:4016000081EA030E52EA03354FEA013100F088804FEA03334FF0805545EA131343EA12634FEA022245EA111545EA10654FEA00260EF000419D4208BF964244F1FD0404F53C
:40164000407402D25B084FEA3202B61A65EB03055B084FEA32024FF480104FF4002CB6EB020E75EB030E22BFB61A754640EA0C005B084FEA3202B6EB020E75EB030E22BF41
:40168000B61A754640EA5C005B084FEA3202B6EB020E75EB030E22BFB61A754640EA9C005B084FEA3202B6EB020E75EB030E22BFB61A754640EADC0055EA060E18D04FEA1D
:4016C000051545EA16754FEA06164FEAC30343EA52734FEAC2025FEA1C1CC0D111F4801F0BD141EA00014FF000004FF0004CB6E711F4801F04BF01430020B4F1FD0C88BFEE
:40170000BCF5E06F3FF6AFAEB5EB030C04BFB6EB020C5FEA500C50F1000041EB045170BD0EF0004E4EEA113114EB5C04C2BFD4EB0C0541EA045170BD41F480114FF0000E2C
:40174000013C90E645EA060E8DE60CEA135594EA0C0F08BF95EA0C0F3FF43BAF94EA0C0F0AD150EA01347FF434AF95EA0C0F7FF425AF104619462CE795EA0C0F06D152EAFC
:4017800003353FF4FDAE1046194622E750EA410618BF52EA43067FF4C5AE50EA41047FF40DAF52EA43057FF4EBAE12E74FEA4102B2F1E04324BFB3F5001CDCF1FE5C0DD965
:4017C00001F0004C4FEAC0024CEA5070B2F1004F40EB830008BF20F00100704711F0804F21D113F13872BCBF01F00040704741F480114FEA5252C2F11802C2F1200C10FA60
:401800000CF320FA02F018BF40F001004FEAC1234FEAD32303FA0CFC40EA0C0023FA02F34FEA4303CCE77FEA625307D150EA01331EBF4FF0FE4040F44000704701F00040B0
:4018400040F0FE4040F40000704700BF4FEA4002B2F1FE4F0FD34FF09E03B3EB12620DD94FEA002343F0004310F0004F23FA02F018BF404270474FF00000704712F1610F82
:4018800001D1420205D110F0004008BF6FF0004070474FF000007047014B1868704700BF4481FF1F0E4B70B51E460E4C0025E41AA410A54204D056F8253098470135F8E75F
:4018C00000F096FC084B094C1E46E41AA4100025A54204D056F8253098470135F8E770BDFC210000FC210000FC2100000422000010B5431E0A44914204D011F8014B03F81C
:40190000014FF8E710BD03460244934202D003F8011BFAE7704700000EB400B54FF402719CB0ADF814106FF00041049107914FF6FF711DAB02900690084853F8042BADF8A3
:401940001610006802A9019300F064F8029B00221A701CB05DF804EB03B070474481FF1F2DE9F0478E6882469E420C46914698463ED88A8912F4906F3AD02568096902235A
:401980006F1A656905EB450595FBF3F57B1C43449D4238BF1D4653050FD5294600F040FB064698B13A462169FFF7A2FFA38923F4906343F08003A38113E02A4600F08EFBCF
:4019C000064670B92169504600F0DEFA0C23CAF80030A3894FF0FF3043F04003A381BDE8F08726613E44266046466561ED1BA560464528BF464649463246206800F0A8FA0C
:401A0000A36800209B1BA36023681E442660BDE8F08700002DE9F04F9DB003938B8980461C060D4616460DD50B695BB9402100F0F7FA2860286118B90C23C8F80030CDE0F6
:401A400040236B610023099320238DF82930DFF89CB130238DF82A3037463C4614F8013B1BB9B7EB060910D003E0252BF9D02746F3E74B46324629464046FFF771FF01307D
:401A800000F0A780099B4B4409933B78002B00F0A08000234FF0FF3204930793059206938DF853301A930126052221784E4800F041FA671C049B38B14B4A3C46801A06FA45
:401AC00000F018430490EFE7D90644BF20228DF853201A0744BF2B228DF8532022782A2A03D0079A00210A200BE0039A111D12680391002A10DA524243F002000792049031
:401B00000BE027463B780134303B092B03D800FB02320121F5E701B107923B782E2B1ED17B782A2B0AD1039B02371A1D1B680392002BB8BF4FF0FF33059310E00023194612
:401B40000593781C0A2407463A780130303A092A03D804FB01210123F5E703B1059103223978224800F0E6F940B14023CBEB000003FA00F0049B0137184304903978062253
:401B80001B487E1C8DF8281000F0D4F988B1194B33B9039B073323F007030833039314E003AB00932A46144B04A94046AFF3008007E003AB00932A460F4B04A9404600F0F1
:401BC00093F8B0F1FF3F824603D0099B5344099342E7AB895B0601D4099801E04FF0FF301DB0BDE8F08F00BFBC210000C2210000C621000000000000611900002DE9F04768
:401C000091461F460A698B6806469342B8BF1346C9F8003091F843200C46DDF8208012B10133C9F800302368990642BFD9F800300233C9F80030256815F0060510D104F1C0
:401C4000190A07E00123524639463046C04701301AD00135E368D9F800209B1A9D42F1DB94F843302268003318BF012392060FD5E118302081F843005A1C94F845102244C0
:401C8000023382F8431003E04FF0FF30BDE8F08704F1430239463046C0470130F4D02268D9F80050E36802F00602042A08BF5D1B2269A3680CBF25EAE57500259342C4BFE6
:401CC0009B1AED184FF000091A344D4509D00123224639463046C0470130D5D009F10109F3E70020BDE8F0872DE9F04317460A7E85B06E2A984606460C460C9B01F1430E50
:401D000000F0AE8011D8632A22D009D8002A00F0BB80582A40F0CA8081F84520834955E0642A1ED0692A1CD0C0E0732A00F0B08009D86F2A2ED0702A40F0B8800A6842F096
:401D400020020A603EE0752A24D0782A3AD0ADE01A6801F14205111D1960136884F84230A8E021681A6811F0800F02D0111D196008E011F0400F02F10401196002D0B2F960
:401D8000003000E01368002B3CDA2D225B4284F8432037E021681A6811F0800F02D0111D196007E011F0400F02F10401196001D0138800E01368227E5C496F2A14BF0A2215
:401DC00008221BE078225A4984F845202268186812F0800F00F104051D6003D1550601D5038800E00368D00744BF42F0200222601BB9226822F0200222601022002084F821
:401E0000430001E049490A226568002DA56008DB206820F0040020602BB9002D7DD175460CE0002B79D07546B3FBF2F002FB1033CB5C05F8013D03460028F5D1082A0BD116
:401E40002368DA0708D5236962689A42DEBF302305F8013C05F1FF35C5EB0E0323612EE008681A6810F0800F496903D0101D1860136808E010F0400F02F1040018601368F9
:401E800001D0198000E0196000232361754616E01A68111D1960156800216268284600F049F808B1401B6060636804E004F1420584F8422001232361002384F84330CDF8BB
:401EC00000803B4603AA21463046FFF797FE013002D14FF0FF3026E023692A4639463046C0470130F5D023689B0710D5002504F1190907E001234A4639463046C047013050
:401F0000E7D00135E368039A9B1A9D42F2DBE068039B9842B8BF184605E00B7804F1420584F842308AE705B0BDE8F083CD210000DE21000010B5C9B202449042034605D0A3
:401F40001C7801308C42F8D1184610BD002010BD884210B501EB020301D8421E0BE09842FBD28118D21AD34204D013F8014D01F8014DF8E710BD994204D011F8014B02F8EA
:401F8000014FF8E710BD000038B50546002944D051F8043C0C1F002BB8BFE41800F0D4F81E4A1368114613B96360146030E0A3420DD92268A018834201BF18685B68121856
:401FC000226063600C6023E0A24203D813465A68002AF9D118681918A1420BD12168014458188242196013D110685268014419605A600DE002D90C232B6009E0216860187A
:40200000824201BF106852680918216062605C602846BDE8384000F098B838BD8481FF1F70B5CD1C25F0030508350C2D38BF0C25002D064601DBA94202D90C23336046E01B
:4020400000F082F8234B1C681A462146A1B10B685B1B0ED40B2B03D90B60CC18CD501EE08C420BBF63684B681360636018BF0C4615E00C464968E9E7174C23681BB930462F
:4020800000F052F820602946304600F04DF8431C18D0C41C24F00304A0420DD12560304600F053F804F10B00231D20F00700C31A0ED05A42E25070BD211A304600F034F83A
:4020C0000130EBD10C233360304600F03EF8002070BD00BF8481FF1F8081FF1FF8B5074615460E4621B91146BDE8F840FFF798BF1AB9FFF749FF2846F8BD00F027F8854239
:402100000ED929463846FFF78BFF044650B131462A46FFF7EDFB31463846FFF735FF01E03046F8BD2046F8BD38B5064C0023054608462360FEF7E2F9431C02D1236803B136
:402140002B6038BDA481FF1F7047704751F8040C0028BEBF091851F8043CC018043870470000000025640D0A00000000035B00402443004040000000C84900401900004FDD
:4021800000400C00405100403000F0510040100000000140001000140140000800400140000A004C014000020050014020000000605200403406004806004300232D302B60
:4021C0002000686C4C00656667454647003031323334353637383941424344454600303132333435363738396162636465660000F8B500BFF8BC08BC9E4670474D000000CB
:4022000079050000F8B500BFF8BC08BC9E4670472900000028220000C880FF1F80000000600000000000000000000000A881FF1F0000E02EC05D00001800000000366E01B9
:4022400001FF00000000000000000000000000000000000000000000000000000000000000000000BA21000000000000000000000000000000000000000000000000000083
:40228000000000000000000000000000000000000000000000000000000000000000000000000000E480FF1F0000000000000000000000000000000000000000000000009C
:4022C00000000000000000000000000000000000000000000000000000000000000000000000000000000000000000000000000000000000000000000000000000000000DE
:40230000000000000000000000000000000000000000000000000000000000000000000000000000000000000000000000000000000000000000000000000000000000009D
:40234000000000000000000000000000000000000000000000000000000000000000000000000000000000000000000000000000000000000000000000000000000000005D
:40238000000000000000000000000000000000000000000000000000000000000000000000000000000000000000000000000000000000000000000000000000000000001D
:020000040003F7
:0200000480007A
:40000000024F00400252004001640040036500400205014052060140380701405608014036090140020B0140061501400E170140551801404C190140631A0140471B014009
:4000400002400140044101400642014006430140024401400345014005460140024701400A480140114901400C4C0140114D0140055001400251014001300A2700200160CB
:40008000870F883889728B0F9410A810028003030402060D08400C0D0D020E801011122214421608170318621A141C8D1F01208D248D288D3103320F348036703A883E1014
:4000C0005440580459045B045C115D105F018084819A840485988702880189028B988C078D988E388F029060940A9521961097D899389BC09C569D139E099F64A084A19A57
:40010000A484A880A902AA04AC04ADFCAE80AF03B27FB30FB480B5E0B713B808BB28BE10D602D728D804D904DB04DC11DD10DF0100540101040205140640070609090A01D8
:400140000D040E080F41102A130114401501172818181D441E011F1020042188221827402840295031883210360C374039543B013C403E013F406020640466406720682A85
:4001800069556B2A730189808A088B408F409410C0FFC2FDC47FCA0DCC5ECE9FD872E21000100140040C050C06110713081009110A0C0B0E0E2011401603170C180919112A
:4001C0001A101B061C14222023082420281C29402A022D202F03321F330F342035303740388039203B083E503F404003454049FF4A074BFF4C404D204EF04F05500854096C
:40020000580459045A045B045C225D125F01604061A86240632085018632887389018A0C8C408D01904C9223964098049C4C9E13A008A80CAC7FB07CB401B501B60EB82024
:40024000BA82BB02D804D904DC22DF0101A002200516062007020AA60D200E100F021080120213101640171818081A821C041E101F4021102222256427142C042D012F0258
:400280003510370639543D083E21440145484D03560157025D085E425F2064018A018B0A9808C0F7C2EFC47BCAB0CCE0CEEED040D6F0D810E020E4809808B408A820E00859
:4002C000E401EA09EC10EE04830484048C018D0194029C249F04A501B104B201B404E20BE604EA0800090206043008301002120D2003220C2405260A28202E10300F323007
:40030000340F38083A223E04403641044210440245DE46F047CB483B49FF4AFF4BFF4C224EF04F0850045418560458045A045B045C015D215F0162C06440650166106711F5
:4003400068C069016B116C406D016E406F018482870188E78A188B018CC3903C92C3944198089CF89E07A010A6C7A818ACFFB020B21CB4D8B501B603BA20BE01BF10D6028D
:40038000D713D804D904DB04DC02DD20DF01004401200514064008040A860E801080122213101601171A182019211A011D081E801F20230438083B2044084504474A4D0817
:4003C0004E8854105502570859015E01660267056954708072047310810282028320841088048E808F0890089121929295549624971098089A419B5E9DBC9F20A22AA48037
:40040000A508A701AF40B004B248B404B641B740C077C21FC4FFCE06D0F0D220D681D8B0E252E818EC800448061607010B010C100E61247C287C2C242E9A30703280340C4F
:40044000360337013E403F40406241054203440146E0470C481849FF4AFF4BFF4C624DA04EF04F41500C580459045A045C025D025F016640670269106A306B106D106E1057
:400480006F128413850A86648714881389018A2C8E3591069308950897129803991C9A14A240A520A648A84AAA34B010B268B31EB40FB520B701B908BA28BE01BF50C0214A
:4004C000C103C50CC6E0C7B0C829C9FFCAFFCBFFCEF0CF44D00CD401D804D904DA04DB04DC12DD22DF01E6C0EA40EB020044051406010F08100211141501171418451A20F2
:400500001D3C1E402301254027282F203608372238283A203D083E104001411042204528460149204A024F085004531057215C205D025E405F0881028320854088028980B8
:400540008C208F0490209135921094449620972199209A019B169D94A104A20AA701AB20C0E5C240C477CA40CCE0CE66D07ED20CD6F0E00AE401EA09EC103380CC10632056
:400580006520A780D8C03E109D20A780AB10CE20EE8073088D2096109D20A780DC207D01DE0101089501C00845089501B508D001EA029501A5082510838084089610A7800B
:4005C000AF08C820E240E620EA101220164070087F0282208640A008A302AA10AF02B510C430DC80DE20E010E480EA901210132015087B107F4086108B08A508AD01C40EA6
:40060000DE03E601108013087102831085028740888097809F08A710AB20AD04B508C408DC01E601EC0800060A020C0610061C06000303C002800000430000002000006052
:400640006000600000000000830040808300830000000000004B4B00000000001000011010000000000000000000000000001000250018010000000000000000000000005C
:40068000000000000000000000000000000000000000000000000000000000000000000000000000000000000000000000000000000000000000000000000000000000003A
:4006C00000000000000000000000000000000000000000000000000000000000000000000000000000000000000000000000000000000000000000000000000000000000FA
:4007000000000000000000000000000000000000000000000000000000000000000000000000000000000000000000000000000000000000000000000000000000000000B9
:400740000000000000000000000000000000000000000000000000000000000000000000000000000000000000000000000000000000000000000000000000000000000079
:0200000490006A
:0400000000004005B7
:0200000490105A
:04000000BC90ACAF55
:0200000490303A
:020000006A662E
:0200000490402A
:4000000000000000000000000000000000000000000000000000000000000000000000000000000000000000000000000000000000000000000000000000000000000000C0
:400040000000000000000000000000000000000000000000000000000000000000000000000000000000000000000000000000000000000000000000000000000000000080
:400080000000000000000000000000000000000000000000000000000000000000000000000000000000000000000000000000000000000000000000000000000000000040
:4000C0000000000000000000000000000000000000000000000000000000000000000000000000000000000000000000000000000000000000000000000000000000000000
:0200000490501A
:0C00000000012E16106900012E247ACF9A
:00000001FF