:400000000080002011000000990600009906000008B5044B1A6803F53F5302331A6000F05BFB00BFFA46004010B5054C237833B9044B13B10448AFF300800123237010BDE3
:400040003881FF1F00000000C0110000084B10B51BB108490848AFF300800848036803B910BD074B002BFBD0BDE81040184700BF000000003C81FF1FC0110000C880FF1F80
:400080000000000010B586B062B600F0ADFB134800F006FC0023124A13700321114A1170114A137000F092F80D4B1B7823B100F019F900220A4B1A700A4B1A78032AF3D055
:4000C0000A4901A800F058FC01A800F0BDFB054C207800F0B5F803232370E5E7F10000006081FF1F6181FF1FB482FF1FC411000008B500F087FB244B1B782BB93F2841D1BD
:400100000122214B1A7008BD204B1B78032B36D14238322836D8DFE800F01A35353522353535353535353535262E351E2A353535353535353535353535351A3535352235CB
:400140003535353535353535262E351E2A0001220F4B1A7008BD00220D4B1A7008BD00220A4B1A7008BD0122084B1A7008BD0222064B1A7008BD0022034B1A7008BD03223E
:40018000024B1A7008BD00BF6081FF1F6181FF1FB682FF1FF8B50B4E0B4C06F1200735460FCD20606160A260E3602E461034BD42F5D1286820602B792371034800F044FBF8
:4001C000F8BD00BF28130000B882FF1F38B5FFF7E1FF154C154D0FCD20606160A260E3600FCD20616161A261E361204600F02CFB022301220E49204600F0BEFB204600F029
:4002000023FB0C4A0C49204600F0B6FB204600F01BFBB4220949204600F09AFB204600F013FBFFF7B7FF38BDB882FF1F5013000070130000D4130000E01300000814000036
:4002400070B5204B1B78B3B91F4C204D702632462946204600F07CFB3246A919A01900F077FB324605F1E00104F1E00000F070FB0122144B1A70164B1B78022B01D138259D
:4002800000E05E25FFF786FF124A134C1346123A1249204600F070FB204600F0D5FA24240BE0094B621C1A44195D0D4800F064FB094800F0C9FA1334E4B2AC42F1D3FFF7B9
:4002C00069FF70BDB482FF1F6481FF1FD81100006181FF1F7681FF1FB882FF1F001500000C150000F8B5FFF755FF304E304C06F1300735460FCD20606160A260E3602E4616
:400300001034BD42F5D12A88AB782280A370284C204600F099FA274E06F1300735460FCD20606160A260E3602E461034BD42F5D12B8823801E4C204600F086FA5F221E4952
:40034000204600F005FB204600F07EFA5A221B49204600F0FDFA204600F076FA184E06F1300735460FCD20606160A260E3602E461034BD42F5D12A88AB782280A3700C4D95
:40038000284600F061FA0F4C0FCC28606960AA60EB6007CC28616961AA612388AB83284600F052FAFFF7F6FEF8BD00BF1C150000B882FF1F6016000050150000B01500006D
:4003C0000C16000040160000FEE700BFF0B40022174611E050F82760F3B226F0FF0608E001EB420511F812406D78A5550132013BDBB2002BF4D101371E2FEBD9F0BC704751
:400400000B4B1B78DBB203F007010A4A11701B09013213701023A2F23272137002F6C3121370583213704422034B1A70704700BFCF0100496E5800407658004008B50A4663
:40044000002100F090FA08BD08B500F081FA08BD38B50024354B1C80502202331A700B2202331A801823324A13704FF49C71023211800232137045F6BF510232118002328B
:40048000137004222B492C48FFF7DEFF02222B4B1A7008224FF040231A70032103F500731970274B1B78DBB226490B70264B1A8041F25122023B1A8019250CE0234B1B7817
:4004C00003F0010343EA440404F003044FF4F07000F002FA013D0DB1032CEFD115B90320FFF772FF1A4B4FF480721A8007221A70002218490A704820023108701A7002221E
:40050000033B1A7004220A331A70134A137843F00F031370013A137843F001031370013A137843F08003137038BD00BF804000408640004068060048004100400043004063
:4005400008010049A146004022420040254200400440004006400040A243004038B572B6394A137843F00403137000240BE0374863001A19510001440A46098AD068FFF7DD
:400580005DFF0134E4B2092CF1D900240CE02F48A20011194B000344B3F85020D96C986CFFF752FF0134E4B2012CF0D928494FF09040FFF70BFF0A24264B1C70264A13781E
:4005C00043F0020313701032137843F002031370224D2B7843F040032B70A2F58632513A137843F01003137022461D491D48FFF72BFF22461C491D48FFF726FF08221C4938
:400600001C48FFF721FF22461B491C48FFF71CFF08221B491B48FFF717FF1B4A137843F008031370194C61232370FFF711FF812323700122164B1A70FFF7E2FE0E22294615
:400640001448FFF701FF38BDE8460040941600007C0000488358004003500140A0430040340600480051004040060048C05100404C06004812510040540600482051004003
:400680006006004832510040224300400048004004000840B043004008B500F02DF903680C2B00D1FEE7FEE708B5094B1A681044084BC31A802B02DC054B186005E000F0D0
:4006C0001BF90C2303604FF0FF32104608BD00BFCC80FF1FF082FF1F08B5104E104D16E029686B68AC68002204E051F8040B43F8040B0432A242F8D1E868002203E0002129
:4007000043F8041B04328242F9D11035013E002EE6D100F0F7F8FFF7B5FCFEE7010000004C17000008B5104A104B1A60104A136843F40073136000230AE0032B03D80D4A18
:4007400052F8231000E00C490C4A42F8231001332F2BF2D90A4B1A780A4B1A70074A0A4B1A60FFF7FBFE08BD0004FA050CED00E014ED00E000000000990600000080FF1F17
:40078000BC760040C080FF1F08ED00E07222074B1A702022013B1A700622613B1A70472210331A70002250331A7070478B65004010B500F099F804460A4A137843F02003BD
:4007C0001370013A137843F010031370013A137843F01003137000F071F8204600F088F810BD00BF9B65004008B5054B1B7823B9FFF7CCFF0122024B1A70FFF7D9FF08BD93
:400800005481FF1F084B1B78DBB213F0200F06D0064A1078C0B213F01E0F02D17047002070470020704700BF6A65004048650040034B1B7813F0040FFAD1024B187070478F
:40084000696500404964004038B5074B1B782BB938BDFFF7EDFF0134A4B201E005460024285D0028F5D138BD5481FF1F014B1B685864704708ED00E04001C0B2014B18701C
:40088000704700BF01E400E00222014B1A60704700E100E00222014B1A60704780E100E010B50446FFF7F6FF2046FFF7DFFF0720FFF7E2FFFFF7E8FF10BD00BF054A137844
:4008C00043F0040313701032137843F004031370704700BFA24300400230800803D000BF01380046FCD17047EFF3108072B6704780F31088704700BF014B1868704700BFB3
:400900003081FF1F0E4B70B51E460E4C0025E41AA410A54204D056F8253098470135F8E700F002FF084B094C1E46E41AA4100025A54204D056F8253098470135F8E770BD30
:400940003417000034170000341700003C17000010B5431E0A44914204D011F8014B03F8014FF8E710BD03460244934202D003F8011BFAE7704700000EB400B54FF40271CA
:400980009CB0ADF814106FF00041049107914FF6FF711DAB02900690084853F8042BADF81610006802A9019300F064F8029B00221A701CB05DF804EB03B070473081FF1F96
:4009C0002DE9F0478E6882469E420C46914698463ED88A8912F4906F3AD02568096902236F1A656905EB450595FBF3F57B1C43449D4238BF1D4653050FD5294600F040FB73
:400A0000064698B13A462169FFF7A2FFA38923F4906343F08003A38113E02A4600F08EFB064670B92169504600F0DEFA0C23CAF80030A3894FF0FF3043F04003A381BDE83D
:400A4000F08726613E44266046466561ED1BA560464528BF464649463246206800F0A8FAA36800209B1BA36023681E442660BDE8F08700002DE9F04F9DB003938B8980466D
:400A80001C060D4616460DD50B695BB9402100F0F7FA2860286118B90C23C8F80030CDE040236B610023099320238DF82930DFF89CB130238DF82A3037463C4614F8013B5F
:400AC0001BB9B7EB060910D003E0252BF9D02746F3E74B46324629464046FFF771FF013000F0A780099B4B4409933B78002B00F0A08000234FF0FF320493079305920693F1
:400B00008DF853301A930126052221784E4800F041FA671C049B38B14B4A3C46801A06FA00F018430490EFE7D90644BF20228DF853201A0744BF2B228DF8532022782A2A74
:400B400003D0079A00210A200BE0039A111D12680391002A10DA524243F00200079204900BE027463B780134303B092B03D800FB02320121F5E701B107923B782E2B1ED1BB
:400B80007B782A2B0AD1039B02371A1D1B680392002BB8BF4FF0FF33059310E0002319460593781C0A2407463A780130303A092A03D804FB01210123F5E703B1059103223D
:400BC0003978224800F0E6F940B14023CBEB000003FA00F0049B013718430490397806221B487E1C8DF8281000F0D4F988B1194B33B9039B073323F007030833039314E0BB
:400C000003AB00932A46144B04A94046AFF3008007E003AB00932A460F4B04A9404600F093F8B0F1FF3F824603D0099B5344099342E7AB895B0601D4099801E04FF0FF30DB
:400C40001DB0BDE8F08F00BFF2160000F8160000FC16000000000000C10900002DE9F04791461F460A698B6806469342B8BF1346C9F8003091F843200C46DDF8208012B18B
:400C80000133C9F800302368990642BFD9F800300233C9F80030256815F0060510D104F1190A07E00123524639463046C04701301AD00135E368D9F800209B1A9D42F1DB9B
:400CC00094F843302268003318BF012392060FD5E118302081F843005A1C94F845102244023382F8431003E04FF0FF30BDE8F08704F1430239463046C0470130F4D02268DB
:400D0000D9F80050E36802F00602042A08BF5D1B2269A3680CBF25EAE57500259342C4BF9B1AED184FF000091A344D4509D00123224639463046C0470130D5D009F101097C
:400D4000F3E70020BDE8F0872DE9F04317460A7E85B06E2A984606460C460C9B01F1430E00F0AE8011D8632A22D009D8002A00F0BB80582A40F0CA8081F84520834955E065
:400D8000642A1ED0692A1CD0C0E0732A00F0B08009D86F2A2ED0702A40F0B8800A6842F020020A603EE0752A24D0782A3AD0ADE01A6801F14205111D1960136884F842307C
:400DC000A8E021681A6811F0800F02D0111D196008E011F0400F02F10401196002D0B2F9003000E01368002B3CDA2D225B4284F8432037E021681A6811F0800F02D0111DE8
:400E0000196007E011F0400F02F10401196001D0138800E01368227E5C496F2A14BF0A2208221BE078225A4984F845202268186812F0800F00F104051D6003D1550601D593
:400E4000038800E00368D00744BF42F0200222601BB9226822F0200222601022002084F8430001E049490A226568002DA56008DB206820F0040020602BB9002D7DD1754610
:400E80000CE0002B79D07546B3FBF2F002FB1033CB5C05F8013D03460028F5D1082A0BD12368DA0708D5236962689A42DEBF302305F8013C05F1FF35C5EB0E0323612EE07E
:400EC00008681A6810F0800F496903D0101D1860136808E010F0400F02F104001860136801D0198000E0196000232361754616E01A68111D1960156800216268284600F0A1
:400F000049F808B1401B6060636804E004F1420584F8422001232361002384F84330CDF800803B4603AA21463046FFF797FE013002D14FF0FF3026E023692A4639463046D5
:400F4000C0470130F5D023689B0710D5002504F1190907E001234A4639463046C0470130E7D00135E368039A9B1A9D42F2DBE068039B9842B8BF184605E00B7804F14205EF
:400F800084F842308AE705B0BDE8F083031700001417000010B5C9B202449042034605D01C7801308C42F8D1184610BD002010BD884210B501EB020301D8421E0BE0984258
:400FC000FBD28118D21AD34204D013F8014D01F8014DF8E710BD994204D011F8014B02F8014FF8E710BD000038B50546002944D051F8043C0C1F002BB8BFE41800F0D4F8ED
:401000001E4A1368114613B96360146030E0A3420DD92268A018834201BF18685B681218226063600C6023E0A24203D813465A68002AF9D118681918A1420BD121680144A4
:4010400058188242196013D110685268014419605A600DE002D90C232B6009E021686018824201BF106852680918216062605C602846BDE8384000F098B838BD5C81FF1F38
:4010800070B5CD1C25F0030508350C2D38BF0C25002D064601DBA94202D90C23336046E000F082F8234B1C681A462146A1B10B685B1B0ED40B2B03D90B60CC18CD501EE0A8
:4010C0008C420BBF63684B681360636018BF0C4615E00C464968E9E7174C23681BB9304600F052F820602946304600F04DF8431C18D0C41C24F00304A0420DD125603046AA
:4011000000F053F804F10B00231D20F00700C31A0ED05A42E25070BD211A304600F034F80130EBD10C233360304600F03EF8002070BD00BF5C81FF1F5881FF1FF8B5074657
:4011400015460E4621B91146BDE8F840FFF798BF1AB9FFF749FF2846F8BD00F027F885420ED929463846FFF78BFF044650B131462A46FFF7EDFB31463846FFF735FF01E0F7
:401180003046F8BD2046F8BD38B5064C0023054608462360FFF788FA431C02D1236803B12B6038BDEC82FF1F7047704751F8040C0028BEBF091851F8043CC0180438704795
:4011C000000000006F7074696F6E207461626C653A2564200A00000043686172616374657200000000000000000046756C6C207363616C652072616E676500000120326712
:401200000000000000000000000000000000000234670000000000000000000000000000000003386700000000000000000000000000000000042B2F2D20313667000000F6
:40124000000000000000000043686172616374657200000000000000000053616D706C696E67204672657175656E6379013120487A000000000000000000000000000002BE
:40128000313020487A0000000000000000000000000003323520487A0000000000000000000000000004353020487A00000000000000000000000000436861726163746539
:4012C0007200000000000000000054656D706572617475726520666F726D61746343656C73697573000000000000000000000066466172656E68656974000000000000000E
:40130000000020200000000000000000000000000000000000202000000000000000000000000000000000000D0A202020202020202A2A2A2A2A2A2A2A2A2A2A2A2A2A2AC0
:401340002A2A2A2A2A2A2A2A2A0D0A0A000000004F6E676F696E672064617461206163717569736974696F6E2E2E2E200D0A0A0043757272656E7420616363656C65726F72
:401380006D65746572206163717569736974696F6E20636F6E66696775726174696F6E3A0D0A46756C6C207363616C652072616E67653A2025640D0A53616D706C696E6741
:4013C000206672657175656E63793A2025640D0A0000000046616872656E68656974000054656D70657261747572652073656E736F72206461746120666F726D61743A0D11
:401400000A25730D0A0A0000507265737320273F2720746F206368616E67652074686520636F6E66696775726174696F6E2073657474696E677320666F72206461746120DB
:401440006163717569736974696F6E0D0A50726573732027762720746F2076697375616C697A652064617461202844617461206163717569736974696F6E2077696C6C207F
:4014800062652073746F70706564290D0A50726573732027752720746F2073746F70207468652076697375616C697A6174696F6E206F6620646174610D0A0A0044617461D0
:4014C0002077696C6C20626520646973706C6179656420696E202564207365636F6E64732E204F70656E2042726964676520436F6E74726F6C2050616E656C0A0A0000002D
:40150000202573207C2025730D0A0000256320202020207C2025730D0A00000050726573732027622720746F2073746172742064617461206163717569736974696F6E2044
:40154000616E642073746F726167650D0A0A000050726573732027662720746F206368616E67652074686520616363656C65726F6D657465722066756C6C207363616C65C1
:401580002072616E67652E50726576696F75732073746F72656420646174612077696C6C2062652064656C657465640D0A0A000050726573732027702720746F20636861F7
:4015C0006E67652074686520616363656C65726F6D657465722073616D706C696E67206672657175656E63792E50726576696F757320646174612077696C6C2062652064E0
:40160000656C657465640D0A0A00000050726573732027742720746F206368616E6765207468652074656D7065726174757265206461746120666F726D61740D0A0A0000EB
:4016400050726573732027712720746F207175697420746865206D656E750D0A0A00000050726573732027732720746F2073746F70206461746120616371756973697469C4
:401680006F6E20616E642073746F726167650D0A0A000000035B00402443004040000000C84900401900004F00400C00405100403000F05100401000000001400010001443
:4016C0000140800200170140000500400140000A004C0140000200500140200060520040AC050048060080160140B405004880004300232D302B2000686C4C006566674511
:4017000046470030313233343536373839414243444546003031323334353637383961626364656600000000F8B500BFF8BC08BC9E4670474D00000025070000F8B500BFB4
:40174000F8BC08BC9E4670472900000060170000C880FF1F70000000B80100000000000000000000F082FF1F00000000000000000000000000000000000000000000000097
:401780000000000000000000F01600000000000000000000000000000000000000000000000000000000000000000000000000000000000000000000000000000000000023
:4017C0000000000000000000D080FF1F000000000000000000000000000000000000000000000000000000000000000000000000000000000000000000000000000000007B
:4018000000000000000000000000000000000000000000000000000000000000000000000000000000000000000000000000000000000000000000000000000000000000A8
:401840000000000000000000000000000000000000000000000000000000000000000000000000000000000000000000000000000000000000000000000000000000000068
:401880000000000000000000000000000000000000000000000000000000000000000000000000000000000000000000000000000000000000000000000000000000000028
:4018C00000000000000000000000000000000000000000000000000000000000000000000000000000000000000000000000000000000000000000000000000000000000E8
:020000040003F7
:0200000480007A
:40000000024F00400252004004650040040201400503014003050140070701405B08014033090140010B0140030D01400B150140101601403E1701405E1801404F1901404D
:40004000401A01404A1B0140034001400641014009420140084301400444014007450140034601400848014012490140084C01400A4D0140055001400251014001300A4B71
:4000800000400160870F890F8A388B72B920BF10D904DF0121208E04A520B120EE01A120A204E00283808C10A204B120E214E404EE80003C020204040708080809200B05AA
:4000C0000D0A0F14103F15131604170C182719131A181B041C10201C22212418250327042A23301F3330350F363839083A023B205440580459045B045C225D105F01830316
:40010000850C860C877189148A088DDC8F22904C921394719510960E97AC99099A339BD0A610A720A871A910AA06AB40B00FB11FB3E0B460B610B820BA02BB08BE50C03232
:40014000C106C50CC6B0C70EC819C9FFCAFFCBFFCEF0CF44D00CD804D904DA04DC22DD02DF01E6C0EA40EB0203180509060809280A400B040C800E180F801030112014011A
:4001800015101662188019901A401D031F40210D22082320251427142B382C203314372438A0390A3D083E403F204120432448204A085010530464096504800CC076C2FE5A
:4001C000C476CA46CC66CE7FD006D204D870E002E240EC80EE01AC80AF11B008B108B289B502E008E201E802EA05EE0209050B0A1103130C1D021F0D211025092706310F93
:4002000033103B023F0459045C105F010010018104800580088109080A4412861308181C190221882282231224402608278028892B202C402F10310832023340378238809A
:4002400039143F10408441884A044B065020520453A0604069156A466B49704080208301844087048A048C448F089410A204A780C00BC20FC40FCACFCC9BCE2ED00FD204D2
:40028000D801E003E405E60A01400202060507800A040D0D0F80118D1408158D19421B081C081D021F0D211123222408258D29622B142D8D30083201338035703606370FB4
:4002C0003BA03E413F044026410542044401450E47C0482149FF4AFF4BFF4C624DA04EF04F41500C5409580459045A045B045C125D125F016640670269106A306B106D109D
:400300006E106F1287109505973A99049B399D0EA123A304B530B70FB980C006C704C9FFCA07CBFFCC40CD20CEF0CF05D008D401D904DA04DB04DC10DD22DF01E040E1A817
:40034000E240E320000201020422050809010B800C4817041D801E101F0120042240250826A0270428402B802C092F903008326036AA38043D803F0945A149104B044C04BD
:400380004D104E114F8053085702581059825B085D405E065F20610C67027C407E018202832584018604870488018E0B910293889404951096109704981099909D0C9E6A31
:4003C000A102A480A604A748C070C2A0C420CAF1CCFECED2D0B0D234D6FFD810E010E471E60201040F0113011B021F023101330435023A023F1554185604580459045B041D
:400400005C025D205F01801F810882E08330853F86E38882893F8CFF8F40901C910492E39441954098F399119A0C9B0A9C089F40A0C3A40CA804A922AB09AD40B02CB14090
:40044000B210B303B40FB504B6C0B738B902BA22BE04D602D711D804D904DB04DC22DD20DF010468052106400A020B010C800D020EA815011628170218401A401C901D214D
:400480001E09200421082201242A27422D202E40321033423654370139023B803C803D113E045A015C106004620263016D106E046F01748076288202850889088A109102C5
:4004C00092209380946A9D089E68A102A302A480A520A604AD40AE20B008B398B540C0F0C2F0C470CA30CCFDCEF9D621D80DE00AE8E0EA05ECA033403780CC3062086608D9
:400500009F80AB40D8C0EE803E105A0187019E089F80A608CE20D640E04082088E0896109E089F81A608B201E22013027D01C408DE0103208F20AB02B101C008E202EC01EC
:4005400045088508D00127018101840496109F81C820E480E6401102164074047B02838086409F80A004A302A501AA10AB02C430DC80DE20E010E280EAA0132815047B08C9
:400580007F4083088504C40EDE03104071028502874088409780AB28C408DC01E20100060C0610061A021C06000F03C00280000043000000840000000098000201020098AA
:4005C000849A0000043880C00A2110D884000000569A090007FC380380020400601300640498000208E07F0F800000130800000A000011003401200006DECF0B1FFFFFFF3D
:400600002200F008040000000000022C04040404111100010000C00040011011C0010011400140010000000000000000000000000000000020000060600060000000000085
:40064000830050808300830000000000004B4B000000000010000110100000000000000000000000000010002500180100000000000000000000000000000000000000000C
:40068000000000000000000000000000000000000000000000000000000000000000000000000000000000000000000000000000000000000000000000000000000000003A
:4006C00000000000000000000000000000000000000000000000000000000000000000000000000000000000000000000000000000000000000000000000000000000000FA
:4007000000000000000000000000000000000000000000000000000000000000000000000000000000000000000000000000000000000000000000000000000000000000B9
:400740000000000000000000000000000000000000000000000000000000000000000000000000000000000000000000000000000000000000000000000000000000000079
:0200000490006A
:0400000000004005B7
:0200000490105A
:04000000BC90ACAF55
:0200000490303A
:02000000BDC879
:0200000490402A
:4000000000000000000000000000000000000000000000000000000000000000000000000000000000000000000000000000000000000000000000000000000000000000C0
:400040000000000000000000000000000000000000000000000000000000000000000000000000000000000000000000000000000000000000000000000000000000000080
:400080000000000000000000000000000000000000000000000000000000000000000000000000000000000000000000000000000000000000000000000000000000000040
:4000C0000000000000000000000000000000000000000000000000000000000000000000000000000000000000000000000000000000000000000000000000000000000000
:0200000490501A
:0C00000000012E16106900012E1FCE31E9
:00000001FF