:400000000080002011000000F5090000F509000008B5044B1A6803F53F5302331A6000F009FD00BFFA46004010B5054C237833B9044B13B10448AFF300800123237010BD75
:400040004881FF1F00000000382C0000084B10B51BB108490848AFF300800848036803B910BD074B002BFBD0BDE81040184700BF000000004C81FF1F382C0000C880FF1F3A
:400080000000000010B590B062B600F089FDB14800F064FE0024B04B1C70B04B1C7000F035FE00F07DFD01F07FF8AD4800F03CFD01F08EF8AB4B1C7001F0A2FA0CE0E0B219
:4000C00000F008FB38B12246A74903A802F090F903A800F095FD01347F2CF0DD0DF10B022021182000F08CFA48B99DF80B209F4903A802F07DF903A800F082FD02E09C4836
:4001000000F07EFD9DF80B30172B2BD0994800F077FD17228DF80B202021182000F0C2FA48B99DF80B20944903A802F061F903A800F066FD02E0914800F062FD0DF10B024C
:400140002021182000F05CFA48B99DF80B208C4903A802F04DF903A800F052FD02E0844800F04EFD0DF10A022321182000F048FA48B99DF80A20834903A802F039F903A8B6
:4001800000F03EFD02E0804800F03AFD9DF80A305BB3784800F034FD00228DF80A202321182000F07FFA48B99DF80A20774903A802F01EF903A800F023FD02E0744800F052
:4001C0001FFD0DF10A022321182000F019FA48B99DF80A206F4903A802F00AF903A800F00FFD02E0684800F00BFD0DF109022421182000F005FA48B99DF80920664903A883
:4002000002F0F6F803A800F0FBFC02E0634800F0F7FC9DF80930402B2BD0564800F0F0FC40228DF809202421182000F03BFA48B99DF809205A4903A802F0DAF803A800F010
:40024000DFFC02E0574800F0DBFC0DF109022421182000F0D5F948B99DF80920524903A802F0C6F803A800F0CBFC02E04B4800F0C7FC02AA2E21182000F0C2F948B99DF864
:4002800008204A4903A802F0B3F803A800F0B8FC02E0474800F0B4FC9DF808309F2B2AD0344800F0ADFC9F228DF808202E21182000F0F8F948B99DF808203E4903A802F07D
:4002C00097F803A800F09CFC02E03B4800F098FC02AA2E21182000F093F948B99DF80820364903A802F084F803A800F089FC02E02F4800F085FC0DF107022221182000F0F2
:400300007FF948B99DF807202D4903A802F070F803A800F075FC02E02A4800F071FC9DF80730042B69D0134800F06AFC04228DF807202221182000F0B5F9002846D19DF8AC
:400340000720214903A802F053F803A800F058FC3FE000BFF10400008C81FF1F8D81FF1F790400008E81FF1F3C2C00005C2C00007C2C0000B82C0000D42C00000C2D00008C
:40038000482D0000802D0000A02D0000DC2D0000142E0000502E0000882E0000A82E0000E42E00001C2F0000582F0000902F0000B02F0000F02F0000283000006830000068
:4003C000A4300000C430000000310000234800F017FC0DF107022221182000F011F948B99DF807201E4903A802F002F803A800F007FC02E01B4800F003FC1B4BA0221A70DB
:40040000C022DA71194801F0A7F8194B1B7813F0FF0FFAD01BE004EB44025300154AD15C11484170591C515C8170991C515CC170D91C515C0171191D515C41710533D35CFD
:400440008371082100F0EEFB0134E4B200E000241F2CE0D90022064B1A70D6E73831000074310000C43000009081FF1F910500007081FF1F1883FF1F10B500F001FC00F0C8
:4004800017FF164B1860002801DA00221A60134B1B68B3F5803F03DB4FF6FF720F4B1A600E4C206800F0F2FE606001F073FC00220B4B01F021FB00220A4B01F0FBFD01F046
:4004C000E1FEA06001F02EFF074C02460749204601F08EFF204600F093FB10BD6481FF1F00407F4000002440D884FF1FAC31000008B500F063FB234B1B782BB93F283FD15B
:400500000122204B1A7008BD1F4B1B78002B34D1A0F14203322B33D8DFE803F01A32323222323232323232323232252B321E28323232323232323232323232321A32323223
:4005400022323232323232323232252B321E280001220E4B1A7008BD00220C4B1A7008BD094B187008BD084B187008BD064B187008BD0022034B1A7008BD0022024B1A70A5
:4005800008BD00BF8C81FF1F8D81FF1F8F81FF1F00B583B00DF107023121182000F030F810BB134BC0222821182000F049F8A8B11AE051000E4810F812300131405C43EAA5
:4005C000002343F389130B4820F812300A4800F812301B1243540132D2B200E000225F2AE7D90122054B1A7303B05DF804FB00BF9881FF1FD883FF1F1883FF1F6481FF1FD5
:40060000F8B506460D461746002101F075F9044678B9284601F002FA044650B90121304601F0AAF9044620B901F024FA387001F0D9F901F0D7F9201C18BF0120F8BD00BF36
:400640002DE9F04180460C4616461F46002101F053F90546F0B944F0800001F0DFF90546C0B90121404601F087F9054650B111E0C4EB0608012001F0FDF907F80800013C68
:40068000E4B200E03446012CF2D8013E002001F0F1F9B85501F0A6F9281C18BF0120BDE8F08100BF70B50D461646002101F024F9044640B9284601F0B1F9044618B930468B
:4006C00001F0ACF9044601F08DF9201C18BF012070BD00BF10B5002101F00EF9044601F081F90CB9012010BD002010BDFEE700BFF0B40022174611E050F82760F3B226F00E
:40070000FF0608E001EB420511F812406D78A5550132013BDBB2002BF4D101371E2FEBD9F0BC70470B4B1B78DBB203F007010A4A11701B09013213701023A2F232721370B9
:4007400002F6C3121370583213704422034B1A70704700BFCF0100496E5800407658004008B50A46002101F03AFE08BD08B501F02BFE08BD38B50024354B1C8050220233AF
:400780001A700B2202331A801823324A13704FF49C71023211800232137045F6BF51023211800232137004222B492C48FFF7DEFF02222B4B1A7008224FF040231A70032167
:4007C00003F500731970274B1B78DBB226490B70264B1A8041F25122023B1A8019250CE0234B1B7803F0010343EA440404F003044FF4F07001F06CF9013D0DB1032CEFD18B
:4008000015B90320FFF772FF1A4B4FF480721A8007221A70002218490A704820023108701A700222033B1A7004220A331A70134A137843F00F031370013A137843F0010359
:400840001370013A137843F08003137038BD00BF804000408640004068060048004100400043004008010049A146004022420040254200400440004006400040A24300408F
:40088000012807D8044B53F820201844017A13780B431370704700BFB4310000012808D8044B53F820201844017A137823EA010313707047B431000038B572B6394A137830
:4008C00043F00403137000240BE0374863001A19510001440A46098AD068FFF741FF0134E4B2092CF1D900240CE02F48A20011194B000344B3F85020D96C986CFFF736FFF2
:400900000134E4B2012CF0D928494FF09040FFF7EFFE0A24264B1C70264A137843F0020313701032137843F002031370224D2B7843F040032B70A2F58632513A137843F06F
:400940001003137022461D491D48FFF70FFF22461C491D48FFF70AFF08221C491C48FFF705FF22461B491C48FFF700FF08221B491B48FFF7FBFE1B4A137843F008031370D6
:40098000194C61232370FFF7F5FE812323700122164B1A70FFF7C6FE0E2229461448FFF7E5FE38BDE8460040B43100007C0000488358004003500140A0430040340600489F
:4009C0000051004040060048C05100404C0600481251004054060048205100406006004832510040224300400048004004000840B043004008B501F0BBFC03680C2B00D102
:400A0000FEE7FEE708B5094B1A681044084BC31A802B02DC054B186005E001F0A9FC0C2303604FF0FF32104608BD00BFCC80FF1F2885FF1F08B5104E104D16E029686B6826
:400A4000AC68002204E051F8040B43F8040B0432A242F8D1E868002203E0002143F8041B04328242F9D11035013E002EE6D101F085FCFFF707FBFEE7010000006C320000EC
:400A800008B5104A104B1A60104A136843F40073136000230AE0032B03D80D4A52F8231000E00C490C4A42F8231001332F2BF2D90A4B1A780A4B1A70074A0A4B1A60FFF741
:400AC000FBFE08BD0004FA050CED00E014ED00E000000000F50900000080FF1FBC760040C080FF1F08ED00E0024B1B68C3F88400704700BF08ED00E04001C0B2014B187059
:400B0000704700BF11E400E04FF40032014B1A60704700BF00E100E04FF40032014B1A60704700BF80E100E010B50446FFF7F4FF2046FFF7D9FF0720FFF7DEFFFFF7E4FF07
:400B400010BD00BF7222074B1A702022013B1A700622613B1A70472210331A70002250331A7070478B65004010B500F0B9FF04460A4A137843F020031370013A137843F06F
:400B800010031370013A137843F01003137000F0F3F8204600F0A8FF10BD00BF9B65004008B5054B1B7823B9FFF7CCFF0122024B1A70FFF7D9FF08BD7181FF1F084B1B78AC
:400BC000DBB213F0200F06D0064A1078C0B213F01E0F02D17047002070470020704700BF6A65004048650040034B1B7813F0040FFAD1024B187070476965004049640040AA
:400C000038B5074B1B782BB938BDFFF7EDFF0134A4B201E005460024285D0028F5D138BD7181FF1F084B1B7833B97047305DFFF7DBFF0134E4B203E070B50D460646002458
:400C4000AC42F3D370BD00BF7181FF1F084A137843F0010313701032137843F00103137002F64D32137843F001031370704700BFA3430040014B1870704700BF034F004072
:400C8000014B1878704700BF034F0040014B1880704700BF044F0040014B1880704700BF064F004008B5164A137803F0010313700232137803F0FC031370124B1A7802F03D
:400CC000CF021A701A7842F030021A701A7802F0F0021A701A7842F00F021A700A4A137843F00103137040F2E730FFF7CFFF40F2E730FFF7D1FF0820FFF7BCFF08BD00BFA8
:400D0000004F00400B4F0040014F004008B5054B1B7823B9FFF7C6FF0122024B1A70FFF795FF08BD7381FF1F014B1B685864704708ED00E04001C0B2014B1870704700BF54
:400D400001E400E00222014B1A60704700E100E00222014B1A60704780E100E010B50446FFF7F6FF2046FFF7DFFF0720FFF7E2FFFFF7E8FF10BD00BF054A137843F00403BB
:400D800013701032137843F004031370704700BFA243004001BE704708B5034B1B7A00FB03F000F095FE08BDD080FF1F70B504460E46074B1D681F2802D90020FFF7EAFF16
:400DC00004F01F04103455F8240045F8246070BD08ED00E038B504460D46072902D90020FFF7D8FF1F2C02D90020FFF7D3FF04F01F0000F1604000F564406D01EDB2057015
:400E000038BD00BF10B59DF80840012C51D1013809282ED8DFE800F0052D2D052D2D0F192D230F2B03D92548007840B222E02448007840B21EE00F2B03D92248007840B203
:400E400018E02148007840B214E00F2B03D91F48007840B20EE01E48007840B20AE00F2B03D91C48007840B204E01B48007840B200E0002001EB401101FB02F1C90B8AB253
:400E80000D2B0BD8C3F10E0289B211418AB2611E124800EB810101338B7005E0631E0F4901EB83030F219970013C0C4B23F8242010BD0020FFF76EFF10BD00BF180100497B
:400EC0001C010049190100491D0100491A0100491E0100491B0100491F0100497481FF1FF8B5074600F0FCFD06460D4D2B7843F003032B700B4C237843F0030323700A4B02
:400F00001F700320FFF748FF2B7803F0FC032B70237803F0FC032370304600F0E5FDF8BDF8460040F9460040925800400022324B1A7101285FD170B53822304B1A70042221
:400F400002331A70062201331A70002401331C7001331C703F2201331A7002331C7001331C7001331C7001250A331D70502203F527631A700A2201331A702C2201331A7064
:400F800001331C70442203331A70482201331A7001331D7002331D70112201331A70192201331A70972201331A705220FFF798FF5822134B1A7001331C70052605331E702D
:400FC000022201331A7001331C7001331C70204600F094F943F233320A4B1A602946304600F0B0F92946252000F030FA06491D20FFF7DCFE70BD70477481FF1F004E004016
:40100000945800400C85FF1FD9120000F0B583B0284D01272F70284E00247471102000F07FF9102000F000FA07211D20FFF7D2FE0422224B1A7001331C7007331C70204A6D
:40104000137843F0180313701E4B1C7003F2F5231C7001331C700A22A3F209331A7001331C7002331C705B2205331A705E2201331A7004331C701422A3F68C231A700097DF
:4010800010234FF4004248F6F0510220FFF7BAFE2B78013B06EB83039A780B4B1A702B78013B36F82320094B1A802878FFF73EFF03B0F0BDE080FF1F7481FF1F96580040B1
:4010C000075B0040935800400E4E00400C4E004070B500F005FD06462A4B1B782A4B1A7842F001021A701A7842F010021A7010331A7842F001021A701A7842F010021A7068
:40110000224D2B7843F002032B70214C237843F0020323701F4A137843F0030313700320FFF73AFE2B7803F0FD032B70237803F0FD032370184A137843F0060313707A225C
:40114000164B1A70164A137843F0010313701032137843F0010313700F3A137843F0010313701032137843F0010313704FF000530C4A1360A2F5C0721360304600F0B4FC96
:4011800070BD00BFE080FF1FAA430040F8460040F9460040915800407758004082580040A143004080E200E008B5084B9B794BB9064BDB7913F0FF0F01D1FFF727FF0122F4
:4011C000024B9A71FFF784FF08BD00BF7481FF1F024A137843F0010313707047004E0040024A137803F0FE0313707047004E0040094B1B7913F0FF0F03D0074B5B79DBB29F
:4012000003E0064B1B7803F00103012B01D00028EED01846704700BF7481FF1F014E0040154B1B7803F00303012B07D8134B1888023B1B889BB243EA004013E0022B0AD10D
:401240000E4B1888023B1B7843EA00430C4A107843EA002006E00B4B188883B2074A108843EA0040084B1B7913F0FF0F02D00022054B5A71704700BF144E0040124E0040E4
:40128000114E0040104E00407481FF1F064B9B68C01A4FF47A7303FB00F0044B1B6890FBF3F000B2704700BF7481FF1F0C85FF1F10B5084A137843F004031370FFF788FF8C
:4012C0000020FFF795FFFFF7ABFF0446FFF788FF204610BD014E0040704700BF10B5002404E02046FFF7DAFA0134E4B2012CF8D9FF22014B1A7010BDE180FF1F10B504468D
:40130000FFF7ECFF2046FFF7BBFA014B1C7010BDE180FF1F014B188880B2704780400040034B1A7800F0F80010431870704700BF82400040024B187800F00700704700BF5D
:401340008240004070B505460E46FFF7F3FF0446FFF7E0FFA84256D02B4B1B7803F0010294B900B185B938B9284B1D80284A137803F0BF03137070BD254A137843F0400382
:401380001370224B1D8070BD22B3002321490B7001240F310C7004310B700C390B7803F07F030B701A4B1B7813F0080F00D08DB9194B18800721013B1970164B1B7813F045
:4013C000010FFAD110490B7803F0FE030B700021104B19700C4B1B7813F0010F0DD00E4B1D800EB1032200E001220A4B1A70094B1B7813F0010FFAD170BD044B1D80024903
:401400000B7813430B7070BDA243004080400040824000400140004002400040014B188880B2704700410040034B1A7800F0F80010431870704700BF02410040024B187832
:4014400000F00700704700BF0241004070B505460E46FFF7F3FF0446FFF7E0FFA84256D02B4B1B7803F0010294B900B185B938B9284B1D80284A137803F0BF03137070BD03
:40148000254A137843F040031370224B1D8070BD22B3002321490B70012413310C7004390B7008390B7803F07F030B701A4B1B7813F0080F00D08DB9194B18800721013B4C
:4014C0001970164B1B7813F0010FFAD110490B7803F0FE030B700021104B19700C4B1B7813F0010F0DD00E4B1D800EB1032200E001220A4B1A70094B1B7813F0010FFAD1E6
:4015000070BD044B1D8002490B7813430B7070BDA143004000410040024100400140004002400040014B1B681864704708ED00E04001C0B2014B1870704700BF00E400E003
:401540000122014B1A60704700E100E00122014B1A60704780E100E010B50446FFF7F6FF2046FFF7DFFF0720FFF7E2FFFFF7E8FF10BD00BF38B50222114B1A7081220E3BAB
:401580001A70082202331A700F2511331D70002401331C704FF400420A4B1A6007212846FFF718FC08492846FFF700FC1022074B1A70074B1C70074B1C70074B1C7038BD8D
:4015C000D649004080E100E0291600001085FF1F2185FF1F1485FF1F1585FF1F08B500F07FFA064A137843F0040313701032137843F00403137000F077FA08BDA543004090
:4016000008B5074B1B7823B9FFF7B4FF0122044B1A70FFF7E3FF4FF40042024B1A6008BD8081FF1F00E100E038B5A54B1C78A54B1B7813F0400F00F03A81E4B214F0010F23
:4016400000F01D819F4B1B78453B052B00F21481DFE813F006008200120112010600DF0004F0DF0504F00A04082C42D1954B1B78DBB2452B35D1944B1B7813F0FF0F10D0D1
:40168000924B1B681B78DBB2914A137004228C4B1A7001228F4B1A7046228A4B1A702C46EDE08D4B1B7813F0020F0DD08B4A137843F00A0313706022824B1A704FF400425B
:4016C000874B1A602C46DAE0864A137843F0100313701022844B1A700422023B1A702C46CDE00022764B1A704A22764B1A702C46C5E00A2C2BD1794A137843F0A0031370A3
:40170000754B1B7813F0020F14D06E4B1B7813F0080F01D0092300E00A23704A11780B4313706022674B1A704FF400426C4B1A602C46A4E06B4A137843F010031370102235
:40174000694B1A700422023B1A702C4697E00020FFF720FB2C4692E014F0020F36D15D4B1A78D2B2584B1B78DBB29A4210D2594A1378DBB255490968CB5CDBB254490B704F
:4017800004214F4B197013780133DBB2137076E0514B1B7813F0020F0CD0504A137843F00A0313706022474B1A704FF400424C4B1A6064E04B4A137843F010031370102222
:4017C000494B1A700422023B1A7058E0424B1B7813F0020F0CD0414A137843F09A0313706022384B1A704FF400423D4B1A6046E03C4A137843F01003137010223A4B1A70D6
:401800000422023B1A70354A137843F09003137035E0364A1378DBB2354908682C490978C9B2C15413780133DBB213701278D2B2304B1B78DBB29A4203D21022204B1A70F7
:401840001DE0254B1B7813F0020F0CD0234A137843F00903137060221A4B1A704FF400421F4B1A600BE01F4A137843F0100313700022134B1A7002E00020FFF78BFA14F0B1
:40188000200F1CD00F4B1B7813F0080F01D0012300E00223114A11780B431370114A137803F0EF0313701022064B1A7038BD054B1B7813F0100F02D11022024B1A7038BD31
:4018C000D74900401085FF1F1685FF1F1885FF1FD84900401585FF1F2085FF1F2185FF1F80E100E0D6490040D94900401485FF1F1C85FF1F2285FF1F1A4B1B78DBB2102BC4
:4019000029D1194B1B7813F0080F26D14FF40042164B1A604000C0B229B140F001004922104B1A7002E045220E4B1A70104B1870012201331A700F4B1B7813F0010FFAD07E
:401940000C4B1B7803F00A030A2B08D11022054B1A700320704702207047012070470020704700BF1085FF1FD949004080E100E0D8490040D7490040164B1B7813F0040F21
:4019800023D04000C0B229B140F001004922124B1A7002E04522104B1A70104B1870122201331A700422023B1A700D4B1B7813F0010FFAD00A4B1B7803F00A030A2B06D179
:4019C0001022054B1A7003207047022070470020704700BFD94900401085FF1FD8490040D74900400A4B1B7813F0040F0ED01023074A13700421023A1170064A1370064BD3
:401A00001B7813F0210FFAD00020704702207047D94900401085FF1FD7490040114B1B7813F0040F1BD0104B18700422013B1A7046220E4B1A700E4B1B7813F0010FFAD01E
:401A40000B4B1B7813F0020F04D16022074B1A70002070476022054B1A70032070470220704700BFD9490040D84900401085FF1FD7490040114B1B7813F0040F1BD0104B70
:401A80001B78DBB2492B05D100220E4B1A704A220B4B1A700B4B1B7813F0010FFAD00A4B1B78DBB218B11021064A117004E06021034A117000E0002318467047D9490040B8
:401AC0001085FF1FD7490040D8490040000000000230800803D000BF01380046FCD17047EFF3108072B6704780F31088704700BF81F0004102E000BF83F0004330B54FEA2A
:401B000041044FEA430594EA050F08BF90EA020F1FBF54EA000C55EA020C7FEA645C7FEA655C00F0E2804FEA5454D4EB5555B8BF6D420CDD2C4480EA020281EA030382EACD
:401B4000000083EA010180EA020281EA0303362D88BF30BD11F0004F4FEA01314FF4801C4CEA113102D0404261EB410113F0004F4FEA03334CEA133302D0524263EB430355
:401B800094EA050F00F0A780A4F10104D5F1200E0DDB02FA0EFC22FA05F2801841F1000103FA0EF2801843FA05F359410EE0A5F120050EF1200E012A03FA0EFC28BF4CF093
:401BC000020C43FA05F3C01851EBE37101F0004507D54FF0000EDCF1000C7EEB00006EEB0101B1F5801F1BD3B1F5001F0CD349085FEA30004FEA3C0C04F101044FEA445253
:401C000012F5800F80F09A80BCF1004F08BF5FEA500C50F1000041EB045141EA050130BD5FEA4C0C404141EB010111F4801FA4F10104E9D191F0000F04BF01460020B1FA8F
:401C400081F308BF2033A3F10B03B3F120020CDA0C3208DD02F1140CC2F10C0201FA0CF021FA02F10CE002F11402D8BFC2F1200C01FA02F120FA0CFCDCBF41EA0C0190406E
:401C8000E41AA2BF01EB0451294330BD6FEA04041F3C1CDA0C340EDC04F11404C4F1200220FA04F001FA02F340EA030021FA04F345EA030130BDC4F10C04C4F1200220FA58
:401CC00002F001FA04F340EA0300294630BD21FA04F0294630BD94F0000F83F4801306BF81F480110134013D4EE77FEA645C18BF7FEA655C29D094EA050F08BF90EA020FF5
:401D000005D054EA000C04BF1946104630BD91EA030F1EBF0021002030BD5FEA545C05D14000494128BF41F0004130BD14F580043CBF01F5801130BD01F0004545F0FE4102
:401D400041F470014FF0000030BD7FEA645C1ABF194610467FEA655C1CBF0B46024650EA013406BF52EA033591EA030F41F4002130BD00BF90F0000F04BF0021704730B5F6
:401D80004FF4806404F132044FF000054FF0000150E700BF90F0000F04BF0021704730B54FF4806404F1320410F0004548BF40424FF000013EE700BF42004FEAE2014FEA6D
:401DC00031014FEA02701FBF12F07F4393F07F4F81F06051704792F0000F14BF93F07F4F704730B54FF4607401F0004521F0004120E700BF50EA010208BF704730B54FF0A5
:401E000000050AE050EA010208BF704730B511F0004502D5404261EB41014FF4806404F132045FEA915C3FF4DCAE4FF003025FEADC0C18BF03325FEADC0C18BF033202EBF6
:401E4000DC02C2F1200300FA03FC20FA02F001FA03FE40EA0E0021FA02F11444C1E600BF70B54FF0FF0C4CF4E06C1CEA11541DBF1CEA135594EA0C0F95EA0C0F00F0DEF800
:401E80002C4481EA030621EA4C5123EA4C5350EA013518BF52EA033541F4801143F4801338D0A0FB02CE4FF00005E1FB02E506F00042E0FB03E54FF00006E1FB03569CF024
:401EC000000F18BF4EF0010EA4F1FF04B6F5007F64F5407404D25FEA4E0E6D4146EB060642EAC62141EA55514FEAC52040EA5E504FEACE2EB4F1FD0C88BFBCF5E06F1ED880
:401F0000BEF1004F08BF5FEA500E50F1000041EB045170BD06F0004646EA010140EA020081EA0301B4EB5C04C2BFD4EB0C0541EA045170BD41F480114FF0000E013C00F3FD
:401F4000AB8014F1360FDEBF002001F0004170BDC4F10004203C35DA0C341BDC04F11404C4F1200500FA05F320FA04F001FA05F240EA020001F0004221F0004110EBD370AD
:401F800021FA04F642EB06015EEA430E08BF20EAD37070BDC4F10C04C4F1200500FA04F320FA05F001FA04F240EA020001F0004110EBD37041F100015EEA430E08BF20EA35
:401FC000D37070BDC4F1200500FA05F24EEA020E20FA04F301FA05F243EA020321FA04F001F0004121FA04F220EA020000EBD3705EEA430E08BF20EAD37070BD94F0000F30
:402000000FD101F00046400041EB010111F4801F08BF013CF7D041EA060195F0000F18BF704703F00046520043EB030313F4801F08BF013DF7D043EA0603704794EA0C0FA1
:402040000CEA135518BF95EA0C0F0CD050EA410618BF52EA4306D1D181EA030101F000414FF0000070BD50EA410606BF1046194652EA430619D094EA0C0F02D150EA0136E3
:4020800013D195EA0C0F05D152EA03361CBF104619460AD181EA030101F0004141F0FE4141F470014FF0000070BD41F0FE4141F4780170BD70B54FF0FF0C4CF4E06C1CEA7D
:4020C00011541DBF1CEA135594EA0C0F95EA0C0F00F0A7F8A4EB050481EA030E52EA03354FEA013100F088804FEA03334FF0805545EA131343EA12634FEA022245EA111558
:4021000045EA10654FEA00260EF000419D4208BF964244F1FD0404F5407402D25B084FEA3202B61A65EB03055B084FEA32024FF480104FF4002CB6EB020E75EB030E22BF1B
:40214000B61A754640EA0C005B084FEA3202B6EB020E75EB030E22BFB61A754640EA5C005B084FEA3202B6EB020E75EB030E22BFB61A754640EA9C005B084FEA3202B6EB25
:40218000020E75EB030E22BFB61A754640EADC0055EA060E18D04FEA051545EA16754FEA06164FEAC30343EA52734FEAC2025FEA1C1CC0D111F4801F0BD141EA00014FF0A4
:4021C00000004FF0004CB6E711F4801F04BF01430020B4F1FD0C88BFBCF5E06F3FF6AFAEB5EB030C04BFB6EB020C5FEA500C50F1000041EB045170BD0EF0004E4EEA1131EA
:4022000014EB5C04C2BFD4EB0C0541EA045170BD41F480114FF0000E013C90E645EA060E8DE60CEA135594EA0C0F08BF95EA0C0F3FF43BAF94EA0C0F0AD150EA01347FF4FA
:4022400034AF95EA0C0F7FF425AF104619462CE795EA0C0F06D152EA03353FF4FDAE1046194622E750EA410618BF52EA43067FF4C5AE50EA41047FF40DAF52EA43057FF4E9
:40228000EBAE12E74FEA4102B2F1E04324BFB3F5001CDCF1FE5C0DD901F0004C4FEAC0024CEA5070B2F1004F40EB830008BF20F00100704711F0804F21D113F13872BCBF4E
:4022C00001F00040704741F480114FEA5252C2F11802C2F1200C10FA0CF320FA02F018BF40F001004FEAC1234FEAD32303FA0CFC40EA0C0023FA02F34FEA4303CCE77FEA56
:40230000625307D150EA01331EBF4FF0FE4040F44000704701F0004040F0FE4040F40000704700BF4FEA4002B2F1FE4F0FD34FF09E03B3EB12620DD94FEA002343F00043DD
:4023400010F0004F23FA02F018BF404270474FF00000704712F1610F01D1420205D110F0004008BF6FF0004070474FF000007047014B1868704700BF4481FF1F0E4B70B5A4
:402380001E460E4C0025E41AA410A54204D056F8253098470135F8E700F056FF084B094C1E46E41AA4100025A54204D056F8253098470135F8E770BD543200005432000083
:4023C000543200005C32000010B5431E0A44914204D011F8014B03F8014FF8E710BD03460244934202D003F8011BFAE7704700000EB400B54FF402719CB0ADF814106FF0DC
:402400000041049107914FF6FF711DAB02900690084853F8042BADF81610006802A9019300F064F8029B00221A701CB05DF804EB03B070474481FF1F2DE9F0478E68824650
:402440009E420C46914698463ED88A8912F4906F3AD02568096902236F1A656905EB450595FBF3F57B1C43449D4238BF1D4653050FD5294600F040FB064698B13A46216944
:40248000FFF7A2FFA38923F4906343F08003A38113E02A4600F08EFB064670B92169504600F0DEFA0C23CAF80030A3894FF0FF3043F04003A381BDE8F08726613E4426603C
:4024C00046466561ED1BA560464528BF464649463246206800F0A8FAA36800209B1BA36023681E442660BDE8F08700002DE9F04F9DB003938B8980461C060D4616460DD526
:402500000B695BB9402100F0F7FA2860286118B90C23C8F80030CDE040236B610023099320238DF82930DFF89CB130238DF82A3037463C4614F8013B1BB9B7EB060910D012
:4025400003E0252BF9D02746F3E74B46324629464046FFF771FF013000F0A780099B4B4409933B78002B00F0A08000234FF0FF3204930793059206938DF853301A930126DF
:40258000052221784E4800F041FA671C049B38B14B4A3C46801A06FA00F018430490EFE7D90644BF20228DF853201A0744BF2B228DF8532022782A2A03D0079A00210A20F7
:4025C0000BE0039A111D12680391002A10DA524243F00200079204900BE027463B780134303B092B03D800FB02320121F5E701B107923B782E2B1ED17B782A2B0AD1039B1F
:4026000002371A1D1B680392002BB8BF4FF0FF33059310E0002319460593781C0A2407463A780130303A092A03D804FB01210123F5E703B1059103223978224800F0E6F979
:4026400040B14023CBEB000003FA00F0049B013718430490397806221B487E1C8DF8281000F0D4F988B1194B33B9039B073323F007030833039314E003AB00932A46144BFA
:4026800004A94046AFF3008007E003AB00932A460F4B04A9404600F093F8B0F1FF3F824603D0099B5344099342E7AB895B0601D4099801E04FF0FF301DB0BDE8F08F00BFA1
:4026C00012320000183200001C32000000000000392400002DE9F04791461F460A698B6806469342B8BF1346C9F8003091F843200C46DDF8208012B10133C9F800302368AA
:40270000990642BFD9F800300233C9F80030256815F0060510D104F1190A07E00123524639463046C04701301AD00135E368D9F800209B1A9D42F1DB94F8433022680033F4
:4027400018BF012392060FD5E118302081F843005A1C94F845102244023382F8431003E04FF0FF30BDE8F08704F1430239463046C0470130F4D02268D9F80050E36802F09E
:402780000602042A08BF5D1B2269A3680CBF25EAE57500259342C4BF9B1AED184FF000091A344D4509D00123224639463046C0470130D5D009F10109F3E70020BDE8F0872A
:4027C0002DE9F04317460A7E85B06E2A984606460C460C9B01F1430E00F0AE8011D8632A22D009D8002A00F0BB80582A40F0CA8081F84520834955E0642A1ED0692A1CD0E6
:40280000C0E0732A00F0B08009D86F2A2ED0702A40F0B8800A6842F020020A603EE0752A24D0782A3AD0ADE01A6801F14205111D1960136884F84230A8E021681A6811F048
:40284000800F02D0111D196008E011F0400F02F10401196002D0B2F9003000E01368002B3CDA2D225B4284F8432037E021681A6811F0800F02D0111D196007E011F0400F31
:4028800002F10401196001D0138800E01368227E5C496F2A14BF0A2208221BE078225A4984F845202268186812F0800F00F104051D6003D1550601D5038800E00368D007FC
:4028C00044BF42F0200222601BB9226822F0200222601022002084F8430001E049490A226568002DA56008DB206820F0040020602BB9002D7DD175460CE0002B79D0754608
:40290000B3FBF2F002FB1033CB5C05F8013D03460028F5D1082A0BD12368DA0708D5236962689A42DEBF302305F8013C05F1FF35C5EB0E0323612EE008681A6810F0800F7D
:40294000496903D0101D1860136808E010F0400F02F104001860136801D0198000E0196000232361754616E01A68111D1960156800216268284600F049F808B1401B606072
:40298000636804E004F1420584F8422001232361002384F84330CDF800803B4603AA21463046FFF797FE013002D14FF0FF3026E023692A4639463046C0470130F5D02368C8
:4029C0009B0710D5002504F1190907E001234A4639463046C0470130E7D00135E368039A9B1A9D42F2DBE068039B9842B8BF184605E00B7804F1420584F842308AE705B0C9
:402A0000BDE8F083233200003432000010B5C9B202449042034605D01C7801308C42F8D1184610BD002010BD884210B501EB020301D8421E0BE09842FBD28118D21AD342F4
:402A400004D013F8014D01F8014DF8E710BD994204D011F8014B02F8014FF8E710BD000038B50546002944D051F8043C0C1F002BB8BFE41800F0D4F81E4A1368114613B9B3
:402A80006360146030E0A3420DD92268A018834201BF18685B681218226063600C6023E0A24203D813465A68002AF9D118681918A1420BD12168014458188242196013D17F
:402AC00010685268014419605A600DE002D90C232B6009E021686018824201BF106852680918216062605C602846BDE8384000F098B838BD8881FF1F70B5CD1C25F00305D8
:402B000008350C2D38BF0C25002D064601DBA94202D90C23336046E000F082F8234B1C681A462146A1B10B685B1B0ED40B2B03D90B60CC18CD501EE08C420BBF63684B6822
:402B40001360636018BF0C4615E00C464968E9E7174C23681BB9304600F052F820602946304600F04DF8431C18D0C41C24F00304A0420DD12560304600F053F804F10B00EA
:402B8000231D20F00700C31A0ED05A42E25070BD211A304600F034F80130EBD10C233360304600F03EF8002070BD00BF8881FF1F8481FF1FF8B5074615460E4621B91146C0
:402BC000BDE8F840FFF798BF1AB9FFF749FF2846F8BD00F027F885420ED929463846FFF78BFF044650B131462A46FFF7EDFB31463846FFF735FF01E03046F8BD2046F8BDF7
:402C000038B5064C0023054608462360FDF7FAFE431C02D1236803B12B6038BD2485FF1F7047704751F8040C0028BEBF091851F8043CC01804387047000000004465766909
:402C400063652030782530325820697320636F6E6E65637465640D0A00000000434F4E54524F4C20524547495354455220313A203078253032580D0A000000004572726F78
:402C800072206F6363757272656420647572696E672049324320636F6D6D20746F207265616420636F6E74726F6C20726567697374657220310D0A000D0A57726974696E77
:402CC00067206E65772076616C7565732E2E0D0A00000000434F4E54524F4C2052454749535445522031207375636365737366756C6C79207772697474656E2061733A2029
:402D00003078253032580D0A000000004572726F72206F6363757272656420647572696E672049324320636F6D6D20746F2073657420636F6E74726F6C20726567697374E3
:402D4000657220310D0A0000434F4E54524F4C2052454749535445522031206166746572206F7665727772697465206F7065726174696F6E3A203078253032580D0A0000FB
:402D8000434F4E54524F4C20524547495354455220343A203078253032580D0A000000004572726F72206F6363757272656420647572696E672049324320636F6D6D2074B9
:402DC0006F207265616420636F6E74726F6C20726567697374657220340D0A00434F4E54524F4C2052454749535445522034207375636365737366756C6C79207772697472
:402E000074656E2061733A203078253032580D0A000000004572726F72206F6363757272656420647572696E672049324320636F6D6D20746F2073657420636F6E74726F67
:402E40006C20726567697374657220340D0A0000434F4E54524F4C2052454749535445522034206166746572206F7665727772697465206F7065726174696F6E3A203078D0
:402E8000253032580D0A0000434F4E54524F4C20524547495354455220353A203078253032580D0A000000004572726F72206F6363757272656420647572696E6720493264
:402EC0004320636F6D6D20746F207265616420636F6E74726F6C20726567697374657220350D0A00434F4E54524F4C20524547495354455220352073756363657373667503
:402F00006C6C79207772697474656E2061733A203078253032580D0A000000004572726F72206F6363757272656420647572696E672049324320636F6D6D20746F20736558
:402F40007420636F6E74726F6C20726567697374657220350D0A0000434F4E54524F4C2052454749535445522035206166746572206F7665727772697465206F7065726160
:402F800074696F6E3A203078253032580D0A00004649464F20434F4E54524F4C2052454749535445523A203078253032580D0A004572726F72206F63637572726564206478
:402FC0007572696E672049324320636F6D6D20746F2072656164206669666F20636F6E74726F6C207265676973746572200D0A004649464F20434F4E54524F4C205245473F
:403000004953544552207375636365737366756C6C79207772697474656E2061733A203078253032580D0A004572726F72206F6363757272656420647572696E67204932E6
:403040004320636F6D6D20746F20736574206669666F20636F6E74726F6C207265676973746572200D0A00004649464F20434F4E54524F4C20524547495354455220616660
:40308000746572206F7665727772697465206F7065726174696F6E3A203078253032580D0A000000434F4E54524F4C20524547495354455220333A203078253032580D0AE4
:4030C000000000004572726F72206F6363757272656420647572696E672049324320636F6D6D20746F207265616420636F6E74726F6C20726567697374657220330D0A002D
:40310000434F4E54524F4C2052454749535445522033207375636365737366756C6C79207772697474656E2061733A203078253032580D0A000000004572726F72206F633C
:4031400063757272656420647572696E672049324320636F6D6D20746F2073657420636F6E74726F6C20726567697374657220330D0A0000434F4E54524F4C205245474990
:40318000535445522033206166746572206F7665727772697465206F7065726174696F6E3A203078253032580D0A000025640D0A00000000035B0040244300404000000037
:4031C000C84900401900004F00400C00405100403000F0510040100000000140001000140140800200170140000500400140000A004C0140000200500140200060520040F6
:40320000AC050048060080160140B405004880004300232D302B2000686C4C0065666745464700303132333435363738394142434445460030313233343536373839616293
:403240006364656600000000F8B500BFF8BC08BC9E4670474D000000810A0000F8B500BFF8BC08BC9E4670472900000080320000C880FF1F80000000E00300000000000042
:40328000000000002885FF1F0000E02EC05D00001800000000366E0101FF000000000000000000000000000000000000000000000000000000000000000000001032000019
:4032C000000000000000000000000000000000000000000000000000000000000000000000000000000000000000000000000000000000000000000000000000E480FF1F4C
:40330000000000000000000000000000000000000000000000000000000000000000000000000000000000000000000000000000000000000000000000000000000000008D
:40334000000000000000000000000000000000000000000000000000000000000000000000000000000000000000000000000000000000000000000000000000000000004D
:40338000000000000000000000000000000000000000000000000000000000000000000000000000000000000000000000000000000000000000000000000000000000000D
:4033C00000000000000000000000000000000000000000000000000000000000000000000000000000000000000000000000000000000000000000000000000000000000CD
:020000040003F7
:0200000480007A
:40000000024F00400252004004650040040201400503014003050140070701405B08014033090140010B0140030D01400B150140101601403E1701405E1801404F1901404D
:40004000401A01404A1B0140034001400641014009420140084301400444014007450140034601400848014012490140084C01400A4D0140055001400251014001300A4B71
:4000800000400160870F890F8A388B72B920BF10D904DF0121208E04A520B120EE01A120A204E00283808C10A204B120E214E404EE80003C020204040708080809200B05AA
:4000C0000D0A0F14103F15131604170C182719131A181B041C10201C22212418250327042A23301F3330350F363839083A023B205440580459045B045C225D105F01830316
:40010000850C860C877189148A088DDC8F22904C921394719510960E97AC99099A339BD0A610A720A871A910AA06AB40B00FB11FB3E0B460B610B820BA02BB08BE50C03232
:40014000C106C50CC6B0C70EC819C9FFCAFFCBFFCEF0CF44D00CD804D904DA04DC22DD02DF01E6C0EA40EB0203180509060809280A400B040C800E180F801030112014011A
:4001800015101662188019901A401D031F40210D22082320251427142B382C203314372438A0390A3D083E403F204120432448204A085010530464096504800CC076C2FE5A
:4001C000C476CA46CC66CE7FD006D204D870E002E240EC80EE01AC80AF11B008B108B289B502E008E201E802EA05EE0209050B0A1103130C1D021F0D211025092706310F93
:4002000033103B023F0459045C105F010010018104800580088109080A4412861308181C190221882282231224402608278028892B202C402F10310832023340378238809A
:4002400039143F10408441884A044B065020520453A0604069156A466B49704080208301844087048A048C448F089410A204A780C00BC20FC40FCACFCC9BCE2ED00FD204D2
:40028000D801E003E405E60A01400202060507800A040D0D0F80118D1408158D19421B081C081D021F0D211123222408258D29622B142D8D30083201338035703606370FB4
:4002C0003BA03E413F044026410542044401450E47C0482149FF4AFF4BFF4C624DA04EF04F41500C5409580459045A045B045C125D125F016640670269106A306B106D109D
:400300006E106F1287109505973A99049B399D0EA123A304B530B70FB980C006C704C9FFCA07CBFFCC40CD20CEF0CF05D008D401D904DA04DB04DC10DD22DF01E040E1A817
:40034000E240E320000201020422050809010B800C4817041D801E101F0120042240250826A0270428402B802C092F903008326036AA38043D803F0945A149104B044C04BD
:400380004D104E114F8053085702581059825B085D405E065F20610C67027C407E018202832584018604870488018E0B910293889404951096109704981099909D0C9E6A31
:4003C000A102A480A604A748C070C2A0C420CAF1CCFECED2D0B0D234D6FFD810E010E471E60201040F0113011B021F023101330435023A023F1554185604580459045B041D
:400400005C025D205F01801F810882E08330853F86E38882893F8CFF8F40901C910492E39441954098F399119A0C9B0A9C089F40A0C3A40CA804A922AB09AD40B02CB14090
:40044000B210B303B40FB504B6C0B738B902BA22BE04D602D711D804D904DB04DC22DD20DF010468052106400A020B010C800D020EA815011628170218401A401C901D214D
:400480001E09200421082201242A27422D202E40321033423654370139023B803C803D113E045A015C106004620263016D106E046F01748076288202850889088A109102C5
:4004C00092209380946A9D089E68A102A302A480A520A604AD40AE20B008B398B540C0F0C2F0C470CA30CCFDCEF9D621D80DE00AE8E0EA05ECA033403780CC3062086608D9
:400500009F80AB40D8C0EE803E105A0187019E089F80A608CE20D640E04082088E0896109E089F81A608B201E22013027D01C408DE0103208F20AB02B101C008E202EC01EC
:4005400045088508D00127018101840496109F81C820E480E6401102164074047B02838086409F80A004A302A501AA10AB02C430DC80DE20E010E280EAA0132815047B08C9
:400580007F4083088504C40EDE03104071028502874088409780AB28C408DC01E20100060C0610061A021C06000F03C00280000043000000840000000098000201020098AA
:4005C000849A0000043880C00A2110D884000000569A090007FC380380020400601300640498000208E07F0F800000130800000A000011003401200006DECF0B1FFFFFFF3D
:400600002200F008040000000000022C04040404111100010000C00040011011C0010011400140010000000000000000000000000000000020000060600060000000000085
:40064000830050808300830000000000004B4B000000000010000110100000000000000000000000000010002500180100000000000000000000000000000000000000000C
:40068000000000000000000000000000000000000000000000000000000000000000000000000000000000000000000000000000000000000000000000000000000000003A
:4006C00000000000000000000000000000000000000000000000000000000000000000000000000000000000000000000000000000000000000000000000000000000000FA
:4007000000000000000000000000000000000000000000000000000000000000000000000000000000000000000000000000000000000000000000000000000000000000B9
:400740000000000000000000000000000000000000000000000000000000000000000000000000000000000000000000000000000000000000000000000000000000000079
:0200000490006A
:0400000000004005B7
:0200000490105A
:04000000BC90ACAF55
:0200000490303A
:02000000F2D438
:0200000490402A
:4000000000000000000000000000000000000000000000000000000000000000000000000000000000000000000000000000000000000000000000000000000000000000C0
:400040000000000000000000000000000000000000000000000000000000000000000000000000000000000000000000000000000000000000000000000000000000000080
:400080000000000000000000000000000000000000000000000000000000000000000000000000000000000000000000000000000000000000000000000000000000000040
:4000C0000000000000000000000000000000000000000000000000000000000000000000000000000000000000000000000000000000000000000000000000000000000000
:0200000490501A
:0C00000000012E16106900012E2A033D9D
:00000001FF