:400000000080002011000000E5020000E502000008B5044B1A6803F53F5302331A6000F069F900BFFA46004010B5054C237833B9044B13B10448AFF300800123237010BD47
:400040003081FF1F0000000048040000084B10B51BB108490848AFF300800848036803B910BD074B002BFBD0BDE81040184700BF000000003481FF1F48040000C880FF1F9A
:400080000000000062B6FEE7FEE700BFF0B40022174611E050F82760F3B226F0FF0608E001EB420511F812406D78A5550132013BDBB2002BF4D101371D2FEBD9F0BC704710
:4000C000064B1B78DBB203F00701054A11701B09013213704422034B1A707047CF0100496E5800407658004008B50A46002100F0A2F908BD38B50B22264B1A801823264A7A
:400100001370332102321180023213700222234B1A7008224FF040231A70032103F5007319701F4B1B78DBB21E490B701E4B1A8041F25122023B1A80002419250CE01B4B42
:400140001B7803F0010343EA440404F003044FF4F07000F029F9013D0DB1032CEFD115B90320FFF791FF124B4FF480721A8007221A7000220F490A704820023108701A70FE
:400180000222033B1A700C4A137843F00303137038BD00BF80400040824000400043004008010049A146004022420040254200400440004006400040A243004008B500F0DD
:4001C0002FF908BD38B572B6354A137843F00403137000240CE0334D630019194A0011462A44084691882858FFF77EFF0134E4B2082CF0D900240BE02A49A3001819420048
:4002000088180622C16B806BFFF7D8FF0134E4B2002CF1D024494FF09040FFF737FF234A137843F0020313701032137843F0020313701F4C237843F040032370A2F5863219
:40024000513A137843F0100313700A2219491A48FFF7B4FF0A2219491948FFF7AFFF082218491948FFF7AAFF0A2218491848FFF7A5FF184A137843F008031370164D6123CC
:400280002B70FFF737FF81232B700122134B1A70FFF716FF0E2221461148FFF78FFF38BDE84600404C0400007800004803500140A043004020060048005100402C0600480B
:4002C000C051004038060048125100404006004820510040224300400048004004000840B043004008B500F06FF803680C2B00D1FEE7FEE708B5104E104D16E029686B6876
:40030000AC68002204E051F8040B43F8040B0432A242F8D1E868002203E0002143F8041B04328242F9D11035013E002EE6D100F051F8FFF7A7FEFEE701000000B4040000AF
:4003400008B5104A104B1A60104A136843F40073136000230AE0032B03D80D4A52F8231000E00C490C4A42F8231001332F2BF2D90A4B1A780A4B1A70074A0A4B1A60FFF788
:4003800021FF08BD0004FA050CED00E014ED00E000000000E50200000080FF1FBC760040C080FF1F08ED00E00230800803D000BF01380046FCD17047EFF3108072B67047D1
:4003C00080F31088704700BF014B1868704700BF2C81FF1F0E4B70B51E460E4C0025E41AA410A54204D056F8253098470135F8E700F04EF8084B094C1E46E41AA4100025F1
:40040000A54204D056F8253098470135F8E770BD9C0400009C0400009C040000A404000010B5431E0A44914204D011F8014B03F8014FF8E710BD03460244934202D003F81D
:40044000011BFAE77047000000000000C84900401900004F00400C00305100404000F0510040100000000140001000140140000800400140000A004C0140000200500140D8
:4004800020000000605200401806004806004300F8B500BFF8BC08BC9E4670474D00000041030000F8B500BFF8BC08BC9E46704729000000C8040000C880FF1F6800000029
:4004C00020000000000000000000000000000000000000000000000000000000000000000000000000000000000000008E040000000000000000000000000000000000004A
:400500000000000000000000000000000000000000000000000000000000000000000000000000000000000000000000CC80FF1F0000000000000000000000000000000051
:40054000000000000000000000000000000000000000000000000000000000000000000000000000000000000000000000000000000000000000000000000000000000007B
:40058000000000000000000000000000000000000000000000000000000000000000000000000000000000000000000000000000000000000000000000000000000000003B
:4005C00000000000000000000000000000000000000000000000000000000000000000000000000000000000000000000000000000000000000000000000000000000000FB
:4006000000000000000000000000000000000000000000000000000000000000000000000000000000000000000000000000000000000000000000000000000000000000BA
:020000040003F7
:0200000480007A
:40000000024F004002520040016400400365004004000140010101400203014006070140640801403509014007150140511601403F1701405A18014049190140481A014071
:400040004E1B014002400140074101400842014009430140024501400146014001470140054801400C4901400D4C01400E4D0140055001400251014001800A4B006001203E
:400080008938870F8A728B0FB908BF04D904DF012608B208EE80810185028A108E20E210E6030353053007400C011131134E15AC174319311BC61C02238C260128012B0878
:4000C000320333F0350F360338883B28406541044230440145BE46FC470D481F49FF4AFF4BFF4C224EF04F0850045440580459045A045B045C115F0162C0644065016610BC
:40010000671168C069016B116C406D016E406F018202860287028A019F01A302AF01B501B603B702BB02BE40BF50C036C104C205C401C60EC70CC814C9FFCAFFCBFFCC62A7
:40014000CDA0CEF0CF41D00CD418D604D804D904DA04DB04DC10DD11DF01E640E702E910EA30EB10ED10EE10EF12002A07010F02171418011E101F80204021A0271429027E
:400180002A402C082F803140371538083F0A40514501462249104A014D444E804F20500452405440569057085A025D025E0261A06340642266108002830887408840C08E97
:4001C000C280C460CAA9CCE8CEC2D0DBD23CD601D87DE620AD20B320B440B504E008E401EC02009A04020C9A0D0E1038110412C01339141315231664170418211AD81B10C9
:400200001C981E0220FC2203240225052698273A28982A0230E03213340F3530370F39803A22580459045F0180228208842285848604880289808A0D8B048C1D8D84910173
:400240009210942195079602973899609C1D9D84A156A309A41DA50AA710A81DA904AB80AC0DAD04AE10B010B17FB20FB420B580B902BA08BE11BF10D602D720D804D90465
:40028000DB04DF0100900102032004800610074009010A110D400E541008114414801718185019201D041E541F222004210225402620288029022B262F203106321033401E
:4002C00035063620388039143D806002684869D46B58704072018004810284028D408F0492209A10A101A502A620B610C0BFC2FDC477CA4FCCEFCE1ED808E004E210E60E75
:40030000EA02000403200431051406CA09090BD0110C1371145E15DC16A11722182019101AD01BAC1C941E681F0329102B40311F320834F0360737E03AA03B803E04400381
:40034000470449FF4A074BFF4C404D204EF04F0550085409580459045A045B045C105D015F01604061A86240632081108406857C86198701881989678A068B188C1F8D7FE3
:400380009124940695189807991C9A189B629C049F04A140A402A508AA09AB63AD60B007B378B40EB51FB610B880BA20BB28D804D904DC11DF010054040805100684080435
:4003C0000B150E260F2010301204180419421E061F982010221023042741289029902C0830063250375538543B013D083E103F0245084F0254085D045E015F6064028140BC
:40040000822083808410858087108B489040910492109410954096029A809B149C209D529E209F01A41DA501A715AA02B680C037C2E7C406CA2FCCFFCEEFD040D6F0D8107C
:40044000E210E608EA42EE040001040405EC080409030C040D0313031404152317C01B031DEC200221452338240227032802298A2B2430043103320133E03402350C37101D
:400480003E0556025713580459045B045C115D105F01840788028A049A049E05A007A101B004B203B301B808BE05BF04C025C104C50CC60EC70BC815C9FFCAFFCBFFCEF03E
:4004C000CF44D00CD401D804D904DA04DB04DD11DF01E6C0EA40EB020054034007140A200F0611141302170119111B081D081E8020282245260429A02A062B012D012F8009
:40050000304032143302385039044711480449204D804F0C5504578059015C205D015E8869146B027020731178207B048004830284408510870888038A02905492209682C1
:4005400097119A049B559D10A301A437A50CA704AC02B084B2B1B320B424B501C06FC2C4C41ECA87CC0FCE0ED0A0D210D6F1E008E403E8D03220CC10640165209201A62067
:40058000B201D680D8803C805A0192019C019D20A620CE20D640840186208D209C019D20A440A620E240E6400320C008A320A32085088D04AC40E610EA4012201640710450
:4005C000750882208640990CC430DC80DE20E010E4801102138014407B107F4084408D019F80AB20AF80C40EDE03E208104011017404831084048740884089019780A710A7
:40060000C408DE04E201E60100030C0310031A011C03000303C000008280000043000000200000606000600000000000830040808300830000000000004B4B0000000000B9
:400640001000011010000000000000000000000000000000000000000000000000000000000000000000000000000000000000000000000000000000000000000000000049
:40068000000000000000000000000000000000000000000000000000000000000000000000000000000000000000000000000000000000000000000000000000000000003A
:4006C00000000000000000000000000000000000000000000000000000000000000000000000000000000000000000000000000000000000000000000000000000000000FA
:4007000000000000000000000000000000000000000000000000000000000000000000000000000000000000000000000000000000000000000000000000000000000000B9
:400740000000000000000000000000000000000000000000000000000000000000000000000000000000000000000000000000000000000000000000000000000000000079
:0200000490006A
:0400000000004005B7
:0200000490105A
:04000000BC90ACAF55
:0200000490303A
:0200000068FA9C
:0200000490402A
:4000000000000000000000000000000000000000000000000000000000000000000000000000000000000000000000000000000000000000000000000000000000000000C0
:400040000000000000000000000000000000000000000000000000000000000000000000000000000000000000000000000000000000000000000000000000000000000080
:400080000000000000000000000000000000000000000000000000000000000000000000000000000000000000000000000000000000000000000000000000000000000040
:4000C0000000000000000000000000000000000000000000000000000000000000000000000000000000000000000000000000000000000000000000000000000000000000
:0200000490501A
:0C00000000012E16106900012E19796312
:00000001FF